S0150000736B657463685F6D61723037612E7372656326
S11300000C945F000C9487000C9487000C94870078
S11300100C9487000C9487000C94D3000C948700F4
S11300200C9487000C9487000C9487000C94870030
S11300300C9487000C9487000C9487000C94870020
S11300400C9473030C9487000C947F020C94B102FB
S11300500C9487000C9487000C9487000C94870000
S11300600C9487000C948700000000080002010033
S1130070000304070000000000000000010204085F
S113008010204080010204081020010204081020FE
S1130090040404040404040402020202020203032A
S11300A00303030300000000250028002B000000C8
S11300B00000240027002A003401E1023A0111243F
S11300C01FBECFEFD8E0DEBFCDBF11E0A0E0B1E0AE
S11300D0EEEAFFE002C005900D92A834B107D9F70B
S11300E021E0A8E4B1E001C01D92A93FB207E1F705
S11300F010E0CEE5D0E004C02197FE010E949605F1
S1130100CC35D107C9F70E940F030C94CA070C948D
S11301100000411105C0EAE7F0E080818F77808319
S11301206A30A9F063FD02C088E001C088E267700C
S1130130682B88E10FB6F894A895809360000FBEF1
S113014060936000E0E6F0E08081806480832111A8
S113015014C083B7817F846083BFF89483B78160C0
S113016083BF85B7806685BF8F7D85BF789488956A
S113017083B78E7F83BF78940EC083B7817F8460FA
S113018083BFF89483B7816083BF7894889583B7DD
S11301908E7F83BF7894411105C0EAE7F0E0808147
S11301A08068808308951F920F920FB60F921124D6
S11301B08F930FB6F894A89580916000886180931E
S11301C06000109260000FBE8F910F900FBE0F90D1
S11301D01F90189561E084E00E94820461E084E04D
S11301E00E94BE0468EE73E080E090E00E94E203A7
S11301F026E040E855E260E070E08FE491E00E9480
S11302001A0266E071E08FE491E00E94610368EEF7
S113021073E080E090E00C94E203CF93DF93CAE0B4
S1130220D0E06BE071E08FE491E00E94610364EF41
S113023071E080E090E00E94E203219791F764E18D
S113024071E08FE491E00E94610368EE73E080E066
S113025090E00E94E20320E040E069E088E491E05D
S1130260DF91CF910C9489006BE371E089E491E014
S11302700C945E0589E491E00C94ED04FC01918DED
S1130280228D892F90E0805C9F4F821B91098F7390
S113029099270895FC01918D828D981731F0828DF4
S11302A0E80FF11D858D90E008958FEF9FEF08957D
S11302B0FC01918D828D981761F0828DDF01A80F6A
S11302C0B11D5D968C91928D9F5F9F73928F90E08C
S11302D008958FEF9FEF0895FC01538D448D252FD2
S11302E030E0842F90E0821B930B541710F0CF96CC
S11302F008950197089587ED92E0892B49F080E0F5
S113030090E0892B29F00E94D70281110C940000FF
S11303100895FC01848DDF01A80FB11DA35ABF4FBE
S11303202C91848D90E001968F739927848FA689F0
S1130330B7892C93A089B1898C91837080648C9344
S1130340938D848D981306C00288F389E02D8081F3
S11303508F7D80830895EF92FF920F931F93CF9325
S1130360DF93EC0181E0888F9B8D8C8D981305C001
S1130370E889F989808185FD26C0F62E0B8D10E071
S11303800F5F1F4F0F731127E02E8C8DE8120CC0E6
S11303900FB607FCFACFE889F989808185FFF5CF8C
S11303A0CE010E948901F1CF8B8DFE01E80FF11D72
S11303B0E35AFF4FF0829FB7F8940B8FEA89FB89C9
S11303C0808180620AC09FB7F894EE89FF896083B8
S11303D0E889F98980818370806480839FBF81E08C
S11303E090E0DF91CF911F910F91FF90EF900895CE
S11303F0CF93DF93EC01888D8823C9F0EA89FB89C8
S1130400808185FD05C0A889B9898C9186FD0FC0BE
S11304100FB607FCF5CF808185FFF2CFA889B98993
S11304208C9185FFEDCFCE010E948901E7CFDF914A
S1130430CF910895CF92DF92EF92FF921F93CF93C3
S1130440DF93EC016A017B01122FE889F98982E0CC
S113045080834115514E61057105B1F060E079E08A
S11304608DE390E0A70196010E947405DA01C901A9
S11304700197A109B109B695A795979587959C0110
S1130480211580E13807A8F0E889F989108260E82D
S113049074E88EE190E0A70196010E947405DA01E8
S11304A0C9010197A109B109B695A79597958795B3
S11304B09C01EC85FD853083EE85FF852083188EB5
S11304C0EC89FD891083EA89FB89808180618083BE
S11304D0EA89FB89808188608083EA89FB8980813D
S11304E080688083EA89FB8980818F7D8083DF91A6
S11304F0CF911F91FF90EF90DF90CF9008951F92BE
S11305000F920FB60F9211242F938F939F93EF9313
S1130510FF93E0915F01F09160018081E0916501BA
S1130520F091660182FD12C09081809168018F5F15
S11305308F7320916901821751F0E0916801F0E016
S1130540E15BFE4F958F8093680101C08081FF912C
S1130550EF919F918F912F910F900FBE0F901F904D
S113056018951F920F920FB60F9211242F933F9359
S11305704F935F936F937F938F939F93AF93BF93A7
S1130580EF93FF938FE491E00E948901FF91EF9133
S1130590BF91AF919F918F917F916F915F914F9197
S11305A03F912F910F900FBE0F901F9018958FE4DD
S11305B091E00E943E0121E0892B09F420E0822F82
S11305C00895EFE4F1E01382128288EE93E0A0E054
S11305D0B0E084839583A683B7838BE291E0918313
S11305E0808385EC90E09587848784EC90E09787FE
S11305F0868780EC90E0918B808B81EC90E0938BEC
S1130600828B82EC90E0958B848B86EC90E0978BC8
S1130610868B118E128E138E148E089508950E9467
S11306201E040E940E030E94EA00CBE7D1E00E9460
S11306300D012097E1F30E947B01F9CFCF92DF9265
S1130640EF92FF920F931F93CF93DF936C017A0184
S11306508B01C0E0D0E0CE15DF0581F0D8016D91AB
S11306608D01D601ED91FC910190F081E02DC60140
S11306700995892B11F02196EECF7E01C701DF91F8
S1130680CF911F910F91FF90EF90DF90CF9008953D
S11306906115710579F0FB0101900020E9F73197AC
S11306A0AF01461B570BDC01ED91FC910280F381F5
S11306B0E02D099480E090E0089569E371E00C94E2
S11306C048030F931F93CF93DF93EC010E944803D9
S11306D08C01CE010E945D03800F911FDF91CF91A9
S11306E01F910F9108951F920F920FB60F9211242C
S11306F02F933F938F939F93AF93BF938091ED017B
S11307009091EE01A091EF01B091F0013091EC01D4
S113071023E0230F2D3720F40196A11DB11D05C040
S113072026E8230F0296A11DB11D2093EC018093AE
S1130730ED019093EE01A093EF01B093F00180914D
S1130740F1019091F201A091F301B091F4010196AD
S1130750A11DB11D8093F1019093F201A093F301C7
S1130760B093F401BF91AF919F918F913F912F91DD
S11307700F900FBE0F901F9018953FB7F89480917B
S1130780F1019091F201A091F301B091F40126B529
S1130790A89B05C02F3F19F00196A11DB11D3FBFB5
S11307A0BA2FA92F982F8827820F911DA11DB11D43
S11307B0BC01CD0142E0660F771F881F991F4A953F
S11307C0D1F708958F929F92AF92BF92CF92DF920A
S11307D0EF92FF926B017C010E94BD034B015C010F
S11307E0C114D104E104F10401F10E9473050E94D3
S11307F0BD03DC01CB0188199909AA09BB09883E0C
S11308009340A105B10560F321E0C21AD108E108C3
S1130810F10888EE880E83E0981EA11CB11CC11457
S1130820D104E104F10419F7DBCFFF90EF90DF90DE
S1130830CF90BF90AF909F908F900895789484B597
S1130840826084BD84B5816084BD85B5826085BDC8
S113085085B5816085BDEEE6F0E0808181608083AE
S1130860E1E8F0E010828081826080838081816091
S11308708083E0E8F0E0808181608083E1EBF0E058
S1130880808184608083E0EBF0E0808181608083FC
S1130890EAE7F0E0808184608083808182608083E5
S11308A08081816080838081806880831092C10010
S11308B00895833081F028F4813099F08230A1F0DA
S11308C008958730A9F08830B9F08430D1F480914C
S11308D080008F7D03C0809180008F77809380009B
S11308E0089584B58F7702C084B58F7D84BD089543
S11308F08091B0008F7703C08091B0008F7D80938A
S1130900B0000895CF93DF9390E0FC01E458FF4FCB
S11309102491FC01E057FF4F8491882361F190E01A
S1130920880F991FFC01E255FF4FC591D491FC013A
S1130930EC55FF4FA591B491611109C09FB7F8948C
S11309408881209582238883EC912E230BC062300A
S113095061F49FB7F8948881322F3095832388837C
S1130960EC912E2B2C939FBF06C08FB7F894E8818F
S11309702E2B28838FBFDF91CF9108951F93CF93A0
S1130980DF93282F30E0F901E859FF4F8491F901F2
S1130990E458FF4FD491F901E057FF4FC491CC23A1
S11309A0C1F0162F81110E945904EC2FF0E0EE0FD4
S11309B0FF1FEC55FF4FA591B4919FB7F894111107
S11309C004C08C91D095D82302C0EC91DE2BDC932B
S11309D09FBFDF91CF911F910895FC018081918188
S11309E0009711F00C9434060895CF93DF93EC0133
S11309F088819981009711F00E9434061982188227
S1130A001D821C821B821A82DF91CF9108950F935D
S1130A101F93CF93DF93EC018B016F5F7F4F88812E
S1130A2099810E94BD06009731F0998388831B83C6
S1130A300A8381E001C080E0DF91CF911F910F9183
S1130A400895CF93DF93EC0188819981892B29F054
S1130A508A819B818617970760F4CE010E9407055F
S1130A60882341F08C819D81892B19F4E881F981D7
S1130A70108281E0DF91CF910895EF92FF920F935E
S1130A801F93CF93DF93EC017B018A01BA010E948B
S1130A902105811104C0CE010E94F50407C01D8305
S1130AA00C83B701888199810E948C07CE01DF9164
S1130AB0CF911F910F91FF90EF900895FC01118247
S1130AC0108213821282158214826115710551F00D
S1130AD0FB0101900020E9F73197AF01461B570B4A
S1130AE00C943D0508950895A1E21A2EAA1BBB1B80
S1130AF0FD010DC0AA1FBB1FEE1FFF1FA217B307E6
S1130B00E407F50720F0A21BB30BE40BF50B661FFB
S1130B10771F881F991F1A9469F7609570958095BF
S1130B2090959B01AC01BD01CF010895EE0FFF1F0D
S1130B300590F491E02D09940F931F93CF93DF93C5
S1130B408230910510F482E090E0E091F701F09199
S1130B50F80120E030E0A0E0B0E0309719F14081E6
S1130B6051810281138148175907C8F084179507EA
S1130B7069F4109731F012960C93129713961C9304
S1130B8027C00093F7011093F80122C02115310505
S1130B9019F04217530718F49A01BD01EF01DF0160
S1130BA0F801DBCF21153105F9F0281B390B24306E
S1130BB0310580F48A819B816115710521F0FB0167
S1130BC09383828304C09093F8018093F701FE011C
S1130BD0329644C0FE01E20FF31F81939193225099
S1130BE03109398328833AC02091F5013091F60107
S1130BF0232B41F420910201309103013093F6013B
S1130C002093F50120910001309101012115310556
S1130C1041F42DB73EB74091040150910501241BC6
S1130C20350BE091F501F091F601E217F307A0F41A
S1130C302E1B3F0B2817390778F0AC014E5F5F4F2E
S1130C402417350748F04E0F5F1F5093F601409369
S1130C50F5018193919302C0E0E0F0E0CF01DF91D0
S1130C60CF911F910F910895CF93DF93009709F4CB
S1130C7081C0FC01329713821282A091F701B091D6
S1130C80F801109781F420813181820F931F209104
S1130C90F5013091F6012817390751F5F093F60163
S1130CA0E093F50167C0ED0120E030E0CE17DF07E7
S1130CB040F44A815B819E0141155105F1F0EA013E
S1130CC0F5CFD383C28340815181840F951FC81708
S1130CD0D90759F488819981840F951F02969183CD
S1130CE080838A819B81938382832115310529F432
S1130CF0F093F801E093F7013DC0E901FB83EA8337
S1130D0049915991C40FD51FEC17FD0761F48081F7
S1130D109181840F951F0296E901998388838281CA
S1130D2093819B838A83E0E0F0E012968D919C91FD
S1130D301397009719F0FD01DC01F7CF8D919C9179
S1130D4011979D012E5F3F4F820F931F2091F50154
S1130D503091F6012817390769F4309729F4109275
S1130D60F8011092F70102C013821282B093F601C7
S1130D70A093F501DF91CF910895A0E0B0E0E3ECFA
S1130D80F6E00C949707EC01009721F4CB010E9444
S1130D909C05B4C0FC01E60FF71F9C0122503109E9
S1130DA0E217F30708F4A8C0D9010D911C9111971B
S1130DB006171707B0F00530110508F49BC0C801E9
S1130DC004978617970708F495C002501109061B6B
S1130DD0170B019311936D937C93CF010E943406FA
S1130DE089C05B01A01AB10A4C01800E911EA0912A
S1130DF0F701B091F801612C712CE12CF12C1097C2
S1130E0009F446C08D919C911197A815B905B1F5C7
S1130E106C0142E0C40ED11CCA14DB0478F14C010D
S1130E208A189B08640142E0C40ED11C1296BC903F
S1130E3012971396AC91B5E0CB16D10440F0B28270
S1130E40A38391828082D9016D937C9309C00E5F44
S1130E501F4F800F911FF90191838083EB2DFA2F8F
S1130E60E114F10431F0D7011396FC93EE93129739
S1130E7041C0F093F801E093F7013CC0681679068D
S1130E8008F43C017D0112960D90BC91A02DB7CFC2
S1130E908091F5019091F60188169906E1F46616A1
S1130EA07706C8F48091000190910101009741F404
S1130EB08DB79EB74091040150910501841B950B99
S1130EC0E817F907C8F4F093F601E093F501F90186
S1130ED0718360830FC0CB010E949C057C01009745
S1130EE059F0A801BE010E948307CE010E94340676
S1130EF0C70104C0CE0102C080E090E0CDB7DEB7E8
S1130F00EEE00C94B307FB01DC0102C001900D92EA
S1130F1041505040D8F70895FB01DC0101900D9237
S1130F200020E1F708952F923F924F925F926F92C3
S1130F307F928F929F92AF92BF92CF92DF92EF9265
S1130F40FF920F931F93CF93DF93CDB7DEB7CA1BE6
S1130F50DB0B0FB6F894DEBF0FBECDBF09942A8811
S1130F60398848885F846E847D848C849B84AA84B9
S1130F70B984C884DF80EE80FD800C811B81AA8146
S1130F80B981CE0FD11D0FB6F894DEBF0FBECDBF11
S1130F90ED01089510E0CEE5D0E004C0FE010E940A
S1110FA096052196CF35D107C9F7F894FFCFF7
S1130FAE0000F9012000696E69740041592042491C
S1130FBE54434800476F696E6720746F20736C65E5
S1130FCE6570206E6F770000000000AB011E036C8D
S1130FDE01F8013E0158014A010D0A006E616E00CE
S10B0FEE696E66006F7666006F
S9030000FC
