S00B00007372632E73726563D1
S11300000C945F000C9487000C9487000C94870078
S11300100C9487000C9487000C9418010C948700AE
S11300200C9487000C9487000C9487000C94870030
S11300300C9487000C9487000C9487000C94870020
S11300400C94DF030C9487000C94EB020C941D03B6
S11300500C9487000C9487000C9487000C94870000
S11300600C9487000C948700000000080002010033
S1130070000304070000000000000000010204085F
S113008010204080010204081020010204081020FE
S1130090040404040404040402020202020203032A
S11300A00303030300000000250028002B000000C8
S11300B00000240027002A00A0014D03A6011124FA
S11300C01FBECFEFD8E0DEBFCDBF11E0A0E0B1E0AE
S11300D0E6E8F0E102C005900D92AC36B107D9F71D
S11300E024E0ACE6B1E001C01D92AC31B207E1F707
S11300F010E0CEE5D0E004C02197FE010E94020684
S1130100CC35D107C9F70E947B030C9436080C94B4
S113011000009C01ECE6F1E080E0AF014C56514058
S1130120421753071CF491918927F7CF08950F9331
S11301301F93CF93DF938C01CCE6D1E0CE018C5694
S113014091408017910734F4699182E793E00E940B
S11301501702F4CFDF91CF911F910F9108950F9360
S11301601F93CF93DF93EC0109900020E9F72197C7
S1130170C81BD90B8E01025F1F4FECE6F1E025EAA4
S113018020831183028320E723837483658356834A
S11301904783BC0184E791E00E94F807FE01E4591B
S11301A0FE4F8CEC818783E3828783EC83878CE327
S11301B084872D96CE010E948900C459DE4F88831E
S11301C0C801DF91CF911F910F910C949700CF93A9
S11301D0DF93CCE6D1E085EA8883198289E08A83BB
S11301E08EE28B838CEC8C8383E38D8383EC8E8310
S11301F08CE38F8388E090E00E948900888789E0FF
S113020090E0DF91CF910C94970088E0E6E0F1E074
S1130210ACE6B1E001900D928A95E1F788E090E0B8
S11302200E9489008093740189E090E00C94970007
S11302301F920F920FB60F9211248F930FB6F8945A
S1130240A89580916000886180936000109260009E
S11302500FBE8F910F900FBE0F901F90189526E040
S113026040E855E260E070E082E793E00E94860295
S11302706EE071E082E793E00E94CD0361E084E0E8
S11302800E94EE0468EE73E080E090E00E944E0469
S113029061E084E00E942A0568EE73E080E090E06B
S11302A00E944E040E94E70040E050E060E070E0ED
S11302B083E191E00E94AF000E94050168E873E1C8
S11302C080E090E00E944E040E94E70044E650E083
S11302D060E070E08CE191E00E94AF0044E650E001
S11302E060E971E085E291E00E94AF000E9405019F
S11302F068E873E180E090E00E944E040E94E70009
S113030040E050E060E070E08EE291E00E94AF00D7
S11303100E94050168EE73E080E090E00E944E04C4
S113032060E084E00C942A0567E371E082E793E0DF
S11303300E94CD0364EF71E080E090E00C944E04E1
S11303406EE571E08CE693E00C94CA058CE693E0CC
S11303500C945905FC01918D228D892F90E0805CCD
S11303609F4F821B91098F7399270895FC01918DEA
S1130370828D981731F0828DE80FF11D858D90E004
S113038008958FEF9FEF0895FC01918D828D98174A
S113039061F0828DDF01A80FB11D5D968C91928D65
S11303A09F5F9F73928F90E008958FEF9FEF089562
S11303B0FC01538D448D252F30E0842F90E0821B67
S11303C0930B541710F0CF9608950197089583E482
S11303D093E0892B49F080E090E0892B29F00E947A
S11303E0430381110C9400000895FC01848DDF0106
S11303F0A80FB11DA35ABF4F2C91848D90E0019694
S11304008F739927848FA689B7892C93A089B18982
S11304108C91837080648C93938D848D981306C023
S11304200288F389E02D80818F7D80830895EF9287
S1130430FF920F931F93CF93DF93EC0181E0888F9A
S11304409B8D8C8D981305C0E889F989808185FD81
S113045026C0F62E0B8D10E00F5F1F4F0F73112770
S1130460E02E8C8DE8120CC00FB607FCFACFE88999
S1130470F989808185FFF5CFCE010E94F501F1CF86
S11304808B8DFE01E80FF11DE35AFF4FF0829FB7F9
S1130490F8940B8FEA89FB89808180620AC09FB738
S11304A0F894EE89FF896083E889F98980818370F3
S11304B0806480839FBF81E090E0DF91CF911F91A2
S11304C00F91FF90EF900895CF93DF93EC01888D07
S11304D08823C9F0EA89FB89808185FD05C0A88944
S11304E0B9898C9186FD0FC00FB607FCF5CF8081CA
S11304F085FFF2CFA889B9898C9185FFEDCFCE0114
S11305000E94F501E7CFDF91CF910895CF92DF925A
S1130510EF92FF921F93CF93DF93EC016A017B016B
S1130520122FE889F98982E080834115514E6105D3
S11305307105B1F060E079E08DE390E0A7019601E8
S11305400E94E005DA01C9010197A109B109B69534
S1130550A795979587959C01211580E13807A8F008
S1130560E889F989108260E874E88EE190E0A701D7
S113057096010E94E005DA01C9010197A109B109B8
S1130580B695A795979587959C01EC85FD85308355
S1130590EE85FF852083188EEC89FD891083EA8916
S11305A0FB89808180618083EA89FB8980818860FE
S11305B08083EA89FB89808180688083EA89FB895A
S11305C080818F7D8083DF91CF911F91FF90EF9089
S11305D0DF90CF9008951F920F920FB60F921124BF
S11305E02F938F939F93EF93FF93E0918203F09166
S11305F083038081E0918803F091890382FD12C016
S1130600908180918B038F5F8F7320918C0382176D
S113061051F0E0918B03F0E0EE58FC4F958F8093FE
S11306208B0301C08081FF91EF919F918F912F9156
S11306300F900FBE0F901F9018951F920F920FB638
S11306400F9211242F933F934F935F936F937F9354
S11306508F939F93AF93BF93EF93FF9382E793E0BE
S11306600E94F501FF91EF91BF91AF919F918F91FE
S11306707F916F915F914F913F912F910F900FBE9A
S11306800F901F90189582E793E00E94AA0121E041
S1130690892B09F420E0822F0895E2E7F3E0138226
S11306A0128288EE93E0A0E0B0E084839583A68371
S11306B0B7838EE491E09183808385EC90E0958705
S11306C0848784EC90E09787868780EC90E0918B18
S11306D0808B81EC90E0938B828B82EC90E0958B05
S11306E0848B86EC90E0978B868B118E128E138E02
S11306F0148E089508950E948A040E947A030E9429
S11307002F01C7EED1E00E9494012097E1F30E94EB
S1130710E701F9CFCF92DF92EF92FF920F931F93ED
S1130720CF93DF936C017A018B01C0E0D0E0CE154A
S1130730DF0581F0D8016D918D01D601ED91FC9119
S11307400190F081E02DC6010995892B11F02196C5
S1130750EECF7E01C701DF91CF911F910F91FF90E2
S1130760EF90DF90CF9008956115710579F0FB014A
S113077001900020E9F73197AF01461B570BDC01CC
S1130780ED91FC910280F381E02D099480E090E0EA
S113079008956CE571E00C94B4030F931F93CF9309
S11307A0DF93EC010E94B4038C01CE010E94C903C3
S11307B0800F911FDF91CF911F910F9108951F9288
S11307C00F920FB60F9211242F933F938F939F9301
S11307D0AF93BF938091100490911104A0911204DF
S11307E0B091130430910F0423E0230F2D3720F42C
S11307F00196A11DB11D05C026E8230F0296A11D77
S1130800B11D20930F048093100490931104A093BE
S11308101204B09313048091140490911504A091D0
S11308201604B09117040196A11DB11D8093140400
S113083090931504A0931604B0931704BF91AF913D
S11308409F918F913F912F910F900FBE0F901F900A
S113085018953FB7F8948091140490911504A091D1
S11308601604B091170426B5A89B05C02F3F19F0B4
S11308700196A11DB11D3FBFBA2FA92F982F88271C
S1130880820F911DA11DB11DBC01CD0142E0660F77
S1130890771F881F991F4A95D1F708958F929F92C9
S11308A0AF92BF92CF92DF92EF92FF926B017C01E5
S11308B00E9429044B015C01C114D104E104F10438
S11308C001F10E94DF050E942904DC01CB01881993
S11308D09909AA09BB09883E9340A105B10560F3B3
S11308E021E0C21AD108E108F10888EE880E83E0FD
S11308F0981EA11CB11CC114D104E104F10419F720
S1130900DBCFFF90EF90DF90CF90BF90AF909F90A0
S11309108F900895789484B5826084BD84B5816095
S113092084BD85B5826085BD85B5816085BDEEE6F3
S1130930F0E0808181608083E1E8F0E010828081D2
S113094082608083808181608083E0E8F0E0808140
S113095081608083E1EBF0E0808184608083E0EB60
S1130960F0E0808181608083EAE7F0E08081846048
S113097080838081826080838081816080838081A4
S1130980806880831092C1000895833081F028F438
S1130990813099F08230A1F008958730A9F0883031
S11309A0B9F08430D1F4809180008F7D03C08091B0
S11309B080008F7780938000089584B58F7702C07C
S11309C084B58F7D84BD08958091B0008F7703C076
S11309D08091B0008F7D8093B0000895CF93DF9312
S11309E090E0FC01E458FF4F2491FC01E057FF4FD5
S11309F08491882361F190E0880F991FFC01E255EE
S1130A00FF4FC591D491FC01EC55FF4FA591B491D2
S1130A10611109C09FB7F894888120958223888347
S1130A20EC912E230BC0623061F49FB7F894888157
S1130A30322F309583238883EC912E2B2C939FBFE8
S1130A4006C08FB7F894E8812E2B28838FBFDF91DF
S1130A50CF9108951F93CF93DF93282F30E0F901AE
S1130A60E859FF4F8491F901E458FF4FD491F901FB
S1130A70E057FF4FC491CC23C1F0162F81110E947F
S1130A80C504EC2FF0E0EE0FFF1FEC55FF4FA591CE
S1130A90B4919FB7F894111104C08C91D095D823C8
S1130AA002C0EC91DE2BDC939FBFDF91CF911F91AD
S1130AB00895FC0180819181009711F00C94A006A7
S1130AC00895CF93DF93EC0188819981009711F009
S1130AD00E94A006198218821D821C821B821A821F
S1130AE0DF91CF9108950F931F93CF93DF93EC0180
S1130AF08B016F5F7F4F888199810E94290700973E
S1130B0031F0998388831B830A8381E001C080E0EC
S1130B10DF91CF911F910F910895CF93DF93EC0153
S1130B2088819981892B29F08A819B81861797076F
S1130B3060F4CE010E947305882341F08C819D816D
S1130B40892B19F4E881F981108281E0DF91CF913A
S1130B500895EF92FF920F931F93CF93DF93EC01CD
S1130B607B018A01BA010E948D05811104C0CE0166
S1130B700E94610507C01D830C83B7018881998198
S1130B800E94F807CE01DF91CF911F910F91FF9042
S1130B90EF900895FC011182108213821282158253
S1130BA014826115710551F0FB0101900020E9F7F1
S1130BB03197AF01461B570B0C94A905089508956E
S1130BC0A1E21A2EAA1BBB1BFD010DC0AA1FBB1F4D
S1130BD0EE1FFF1FA217B307E407F50720F0A21BBF
S1130BE0B30BE40BF50B661F771F881F991F1A942C
S1130BF069F760957095809590959B01AC01BD0156
S1130C00CF010895EE0FFF1F0590F491E02D099494
S1130C100F931F93CF93DF938230910510F482E0FA
S1130C2090E0E0911A04F0911B0420E030E0A0E091
S1130C30B0E0309719F14081518102811381481746
S1130C405907C8F08417950769F4109731F0129684
S1130C500C93129713961C9327C000931A041093B5
S1130C601B0422C02115310519F04217530718F44B
S1130C709A01BD01EF01DF01F801DBCF2115310538
S1130C80F9F0281B390B2430310580F48A819B81CB
S1130C906115710521F0FB019383828304C0909355
S1130CA01B0480931A04FE01329644C0FE01E20F35
S1130CB0F31F8193919322503109398328833AC0D9
S1130CC02091180430911904232B41F4209102013E
S1130CD030910301309319042093180420910001EA
S1130CE0309101012115310541F42DB73EB74091F2
S1130CF0040150910501241B350BE0911804F09177
S1130D001904E217F307A0F42E1B3F0B2817390729
S1130D1078F0AC014E5F5F4F2417350748F04E0F53
S1130D205F1F50931904409318048193919302C058
S1130D30E0E0F0E0CF01DF91CF911F910F91089592
S1130D40CF93DF93009709F481C0FC01329713829B
S1130D501282A0911A04B0911B04109781F420818F
S1130D603181820F931F20911804309119042817A0
S1130D70390751F5F0931904E093180467C0ED01A5
S1130D8020E030E0CE17DF0740F44A815B819E010A
S1130D9041155105F1F0EA01F5CFD383C2834081B7
S1130DA05181840F951FC817D90759F488819981F7
S1130DB0840F951F0296918380838A819B819383FC
S1130DC082832115310529F4F0931B04E0931A045E
S1130DD03DC0E901FB83EA8349915991C40FD51FB2
S1130DE0EC17FD0761F480819181840F951F0296B1
S1130DF0E90199838883828193819B838A83E0E0DC
S1130E00F0E012968D919C911397009719F0FD01D3
S1130E10DC01F7CF8D919C9111979D012E5F3F4F7F
S1130E20820F931F20911804309119042817390751
S1130E3069F4309729F410921B0410921A0402C02A
S1130E4013821282B0931904A0931804DF91CF91F6
S1130E500895A0E0B0E0EFE2F7E00C940308EC01A1
S1130E60009721F4CB010E940806B4C0FC01E60FF0
S1130E70F71F9C0122503109E217F30708F4A8C0B8
S1130E80D9010D911C91119706171707B0F0053081
S1130E90110508F49BC0C80104978617970708F446
S1130EA095C002501109061B170B019311936D9302
S1130EB07C93CF010E94A00689C05B01A01AB10AED
S1130EC04C01800E911EA0911A04B0911B04612C58
S1130ED0712CE12CF12C109709F446C08D919C9152
S1130EE01197A815B905B1F56C0142E0C40ED11CE7
S1130EF0CA14DB0478F14C018A189B08640142E0AF
S1130F00C40ED11C1296BC9012971396AC91B5E006
S1130F10CB16D10440F0B282A38391828082D9019E
S1130F206D937C9309C00E5F1F4F800F911FF901D1
S1130F3091838083EB2DFA2FE114F10431F0D70172
S1130F401396FC93EE93129741C0F0931B04E09325
S1130F501A043CC06816790608F43C017D01129617
S1130F600D90BC91A02DB7CF8091180490911904D5
S1130F7088169906E1F466167706C8F48091000194
S1130F8090910101009741F48DB79EB740910401FF
S1130F9050910501841B950BE817F907C8F4F093E9
S1130FA01904E0931804F901718360830FC0CB0125
S1130FB00E9408067C01009759F0A801BE010E9416
S1130FC0EF07CE010E94A006C70104C0CE0102C0F3
S1130FD080E090E0CDB7DEB7EEE00C941F08FB0193
S1130FE0DC0102C001900D9241505040D8F70895A1
S1130FF0FB01DC0101900D920020E1F708952F928E
S11310003F924F925F926F927F928F929F92AF9294
S1131010BF92CF92DF92EF92FF920F931F93CF93E1
S1131020DF93CDB7DEB7CA1BDB0B0FB6F894DEBF78
S11310300FBECDBF09942A88398848885F846E849E
S11310407D848C849B84AA84B984C884DF80EE80E8
S1131050FD800C811B81AA81B981CE0FD11D0FB6F1
S1131060F894DEBF0FBECDBFED01089510E0CEE5CC
S1131070D0E004C0FE010E9402062196CF35D107BC
S1091080C9F7F894FFCF4C
S113108600001C042000A500090ACC33C33C696E89
S1131096697400504943342E424D5000504943323E
S11310A62E424D5000504943332E424D5000504974
S11310B643372E424D5000476F696E6720746F2088
S11310C6736C656570206E6F770000000000170270
S11310D68A03D8016402AA01C401B6010D0A006E8E
S10F10E6616E00696E66006F76660000A3
S9030000FC
