:100000000C9462000C948A000C948A000C948A0070
:100010000C948A000C948A000C9484010C948A003D
:100020000C948A000C948A000C948A000C948A0028
:100030000C948A000C948A000C948A000C948A0018
:100040000C94A6040C948A000C94DD030C940F0409
:100050000C948A000C948A000C948A000C948A00F8
:100060000C948A000C948A00000000080002010031
:100070000003040700000000000000000102040863
:100080001020408001020408102001020408102002
:10009000040404040404040402020202020203032E
:1000A00003030303000000002300260029000000D2
:1000B0000000250028002B0000000000240027007D
:1000C0002A003F0411241FBECFEFD8E0DEBFCDBF12
:1000D00011E0A0E0B1E0E2E2F4E102C005900D928F
:1000E000A832B107D9F723E0A8E2B1E001C01D9220
:1000F000A93DB207E1F710E0C2E6D0E004C02197C5
:10010000FE010E948507C136D107C9F70E946D0420
:100110000C940F0A0C9400009C01E8E2F1E080E0EE
:10012000AF0148525140421753071CF4919189275F
:10013000F7CF08950F931F93CF93DF938C01C8E2FD
:10014000D1E0CE01885291408017910734F4699133
:100150008FE293E00E940903F4CFDF91CF911F91CA
:100160000F9108950F931F93CF93DF93EC010990A4
:100170000020E9F72197C81BD90B8E01025F1F4FA2
:10018000E8E2F1E025EA20831183028320E723835C
:100190007483658356834783BC0180E391E00E94AA
:1001A0007B09FE01E85DFE4F8CEC818783E382874B
:1001B00083EC83878CE384872D96CE010E948C008C
:1001C000C85DDE4F8883C801DF91CF911F910F91E9
:1001D0000C949A00CF93DF93C8E2D1E085EA88833C
:1001E000198289E08A838EE28B838CEC8C8383E393
:1001F0008D8383EC8E838CE38F8388E090E00E9474
:100200008C00888789E090E0DF91CF910C949A0070
:1002100088E0E6E0F1E0A8E2B1E001900D928A9575
:10022000E1F788E090E00E948C008093300189E043
:1002300090E00C949A00CF93DF93C8E2D1E095EA66
:10024000988319829AE09A8397E09B838C838CEC45
:100250008D8383E38E8383EC8F838CE3888789E0AF
:1002600090E00E948C0089878AE090E0DF91CF9136
:100270000C949A00411105C0EAE7F0E080818F7785
:1002800080836A30A9F063FD02C088E001C088E283
:100290006770682B88E10FB6F894A895809360008A
:1002A0000FBE60936000E0E6F0E0808180648083B0
:1002B000211114C083B7817F846083BFF89483B712
:1002C000816083BF85B7806685BF8F7D85BF789449
:1002D000889583B78E7F83BF78940EC083B7817F64
:1002E000846083BFF89483B7816083BF78948895D6
:1002F00083B78E7F83BF7894411105C0EAE7F0E0B1
:1003000080818068808308951F920F920FB60F92AC
:1003100011248F930FB6F894A8958091600088619E
:1003200080936000109260000FBE8F910F900FBEFF
:100330000F901F9018951F93CF93DF93EC011881B6
:1003400081E090E00E94C209181729F0612F81E036
:1003500090E00E94CA09198182E090E00E94C209DF
:10036000181729F0612F82E090E00E94CA09CE019F
:10037000DF91CF911F910895CF93DF93CDB7DEB773
:100380002E970FB6F894DEBF0FBECDBF61E084E0BC
:100390000E94C10561E084E00E94FD0568E873E108
:1003A00080E090E00E94210526E040E052EC61E010
:1003B00070E08FE293E00E94780381E00E941B01CD
:1003C0001E861D866EE071E0CE0107960E94C6066D
:1003D00081E090E00E94C2098D8782E090E00E9457
:1003E000C2098E878D859E8501968C3491051CF4FB
:1003F0009E878D8702C01E861D86CE010D960E94A7
:100400009B016D857E854AE0CE0101960E94F20631
:10041000BE016F5F7F4FCE0107960E944C07CE0151
:1004200001960E94550660E171E0CE0107960E9498
:1004300053070E94EA0040E050E060E070E08F81E6
:1004400098850E94B2000E94080168E97AE380E082
:1004500090E00E94210560E084E00E94FD05CE014D
:1004600007960E9455062E960FB6F894DEBF0FBE73
:10047000CDBFDF91CF9108950F931F93CF93DF935B
:1004800000D0CDB7DEB762E082E00E94C10582E015
:100490000E942C06892B51F50E94F00460932903D9
:1004A00070932A0380932B0390932C0382E00E9485
:1004B0002C06892BD9F30E94F00400912903109196
:1004C0002A0320912B0330912C03DC01CB01801BEC
:1004D000910BA20BB30B893B9B40A105B10530F0FA
:1004E0001A821982CE0101960E949B010E94BC01D2
:1004F0000F900F90DF91CF911F910F9108958091F0
:100500002D0390912E0381339A4234F00E94BC0156
:1005100010922E0310922D0380912D0390912E03A3
:10052000019690932E0380932D0320E040E069E034
:1005300088E293E00C943A01FC01918D228D892F81
:1005400090E0805C9F4F821B91098F7399270895DB
:10055000FC01918D828D981731F0828DE80FF11D8D
:10056000858D90E008958FEF9FEF0895FC01918DA8
:10057000828D981761F0828DDF01A80FB11D5D9605
:100580008C91928D9F5F9F73928F90E008958FEF73
:100590009FEF0895FC01538D448D252F30E0842F6B
:1005A00090E0821B930B541710F0CF96089501979B
:1005B000089585E394E0892B49F080E090E0892B51
:1005C00029F00E94350481110C9400000895FC016B
:1005D000848DDF01A80FB11DA35ABF4F2C91848DCC
:1005E00090E001968F739927848FA689B7892C9301
:1005F000A089B1898C91837080648C93938D848D54
:10060000981306C00288F389E02D80818F7D808356
:100610000895EF92FF920F931F93CF93DF93EC0116
:1006200081E0888F9B8D8C8D981305C0E889F989AE
:10063000808185FD26C0F62E0B8D10E00F5F1F4FC9
:100640000F731127E02E8C8DE8120CC00FB607FC3B
:10065000FACFE889F989808185FFF5CFCE010E9424
:10066000E702F1CF8B8DFE01E80FF11DE35AFF4F3A
:10067000F0829FB7F8940B8FEA89FB8980818062B2
:100680000AC09FB7F894EE89FF896083E889F989E9
:1006900080818370806480839FBF81E090E0DF91E0
:1006A000CF911F910F91FF90EF900895CF93DF931B
:1006B000EC01888D8823C9F0EA89FB89808185FD5A
:1006C00005C0A889B9898C9186FD0FC00FB607FCBB
:1006D000F5CF808185FFF2CFA889B9898C9185FFFC
:1006E000EDCFCE010E94E702E7CFDF91CF910895D1
:1006F000CF92DF92EF92FF921F93CF93DF93EC01A3
:100700006A017B01122FE889F98982E08083411513
:10071000514E61057105B1F060E079E08DE390E044
:10072000A70196010E946307DA01C9010197A10997
:10073000B109B695A795979587959C01211580E1FC
:100740003807A8F0E889F989108260E874E88EE13A
:1007500090E0A70196010E946307DA01C9010197A1
:10076000A109B109B695A795979587959C01EC8548
:10077000FD853083EE85FF852083188EEC89FD8909
:100780001083EA89FB89808180618083EA89FB8903
:10079000808188608083EA89FB898081806880838A
:1007A000EA89FB8980818F7D8083DF91CF911F91C2
:1007B000FF90EF90DF90CF9008951F920F920FB6A9
:1007C0000F9211242F938F939F93EF93FF93E091B8
:1007D0003F03F09140038081E0914503F09146038F
:1007E00082FD12C09081809148038F5F8F732091AA
:1007F0004903821751F0E0914803F0E0E15DFC4FBE
:10080000958F8093480301C08081FF91EF919F9164
:100810008F912F910F900FBE0F901F9018951F92E0
:100820000F920FB60F9211242F933F934F935F9324
:100830006F937F938F939F93AF93BF93EF93FF93A8
:100840008FE293E00E94E702FF91EF91BF91AF9199
:100850009F918F917F916F915F914F913F912F91D8
:100860000F900FBE0F901F9018958FE293E00E949B
:100870009C0221E0892B09F420E0822F0895EFE209
:10088000F3E01382128288EE93E0A0E0B0E084836C
:100890009583A683B78389E191E09183808385EC7A
:1008A00090E09587848784EC90E09787868780EC3A
:1008B00090E0918B808B81EC90E0938B828B82EC2B
:1008C00090E0958B848B86EC90E0978B868B118ED5
:1008D000128E138E148E089508950E945D050E9455
:1008E0006C040E943C02C9EDD2E00E947F02209776
:1008F000E1F30E94D902F9CFCF92DF92EF92FF92FB
:100900000F931F93CF93DF936C017A018B01C0E0AB
:10091000D0E0CE15DF0581F0D8016D918D01D601B3
:10092000ED91FC910190F081E02DC6010995892B94
:1009300011F02196EECF7E01C701DF91CF911F917B
:100940000F91FF90EF90DF90CF9008951F920F923C
:100950000FB60F9211242F933F938F939F93AF93D2
:10096000BF938091CD039091CE03A091CF03B0911E
:10097000D0033091CC0323E0230F2D3720F40196D0
:10098000A11DB11D05C026E8230F0296A11DB11DB2
:100990002093CC038093CD039093CE03A093CF03F9
:1009A000B093D0038091D1039091D203A091D3034F
:1009B000B091D4030196A11DB11D8093D1039093F2
:1009C000D203A093D303B093D403BF91AF919F916F
:1009D0008F913F912F910F900FBE0F901F90189500
:1009E0002FB7F8946091CD037091CE038091CF031F
:1009F0009091D0032FBF08953FB7F8948091D10311
:100A00009091D203A091D303B091D40326B5A89BB3
:100A100005C02F3F19F00196A11DB11D3FBFBA2F90
:100A2000A92F982F8827820F911DA11DB11DBC01F0
:100A3000CD0142E0660F771F881F991F4A95D1F7B5
:100A400008958F929F92AF92BF92CF92DF92EF92D2
:100A5000FF926B017C010E94FC044B015C01C114FC
:100A6000D104E104F10401F10E9462070E94FC0438
:100A7000DC01CB0188199909AA09BB09883E93407A
:100A8000A105B10560F321E0C21AD108E108F1081F
:100A900088EE880E83E0981EA11CB11CC114D104FD
:100AA000E104F10419F7DBCFFF90EF90DF90CF90D6
:100AB000BF90AF909F908F900895789484B5826096
:100AC00084BD84B5816084BD85B5826085BD85B5F2
:100AD000816085BDEEE6F0E0808181608083E1E8A1
:100AE000F0E01082808182608083808181608083D9
:100AF000E0E8F0E0808181608083E1EBF0E08081DC
:100B000084608083E0EBF0E0808181608083EAE7AD
:100B1000F0E0808184608083808182608083808136
:100B2000816080838081806880831092C1000895F5
:100B3000833081F028F4813099F08230A1F008955B
:100B40008730A9F08830B9F08430D1F480918000EA
:100B50008F7D03C0809180008F77809380000895FF
:100B600084B58F7702C084B58F7D84BD0895809150
:100B7000B0008F7703C08091B0008F7D8093B0006C
:100B80000895CF93DF9390E0FC01E458FF4F249148
:100B9000FC01E057FF4F8491882361F190E0880FBA
:100BA000991FFC01E854FF4FC591D491FC01E25517
:100BB000FF4FA591B491611109C09FB7F894888146
:100BC000209582238883EC912E230BC0623061F440
:100BD0009FB7F8948881322F309583238883EC91D6
:100BE0002E2B2C939FBF06C08FB7F894E8812E2B35
:100BF00028838FBFDF91CF9108951F93CF93DF9309
:100C0000282F30E0F901E859FF4F8491F901E458A9
:100C1000FF4FD491F901E057FF4FC491CC23C1F0AD
:100C2000162F81110E949805EC2FF0E0EE0FFF1FA8
:100C3000E255FF4FA591B4919FB7F894111104C0EC
:100C40008C91D095D82302C0EC91DE2BDC939FBF12
:100C5000DF91CF911F910895CF93DF93282F30E03C
:100C6000F901E859FF4F8491F901E458FF4FD491FD
:100C7000F901E057FF4FC491CC2391F081110E94FC
:100C80009805EC2FF0E0EE0FFF1FEC55FF4FA591FC
:100C9000B491EC91ED2381E090E021F480E002C07A
:100CA00080E090E0DF91CF910895FC0180819181F7
:100CB000009711F00C9423080895CF93DF93EC0173
:100CC00088819981009711F00E9423081982188267
:100CD0001D821C821B821A82DF91CF9108950F938F
:100CE0001F93CF93DF93EC018B016F5F7F4F888160
:100CF00099810E94AC08009731F0998388831B8307
:100D00000A8381E001C080E0DF91CF911F910F91B4
:100D10000895CF93DF93EC0188819981892B29F085
:100D20008A819B818617970760F4CE010E946F0627
:100D3000882341F08C819D81892B19F4E881F98108
:100D4000108281E0DF91CF910895EF92FF920F938F
:100D50001F93CF93DF93EC017B018A01BA010E94BC
:100D60008906811104C0CE010E945D0607C01D8363
:100D70000C83B701888199810E947B09CE01DF91A4
:100D8000CF911F910F91FF90EF900895FC01118278
:100D9000108213821282158214826115710551F03E
:100DA000FB0101900020E9F73197AF01461B570B7B
:100DB0000C94A5060895CF93DF93EC01611571059E
:100DC00059F0FB0101900020E9F73197AF01461B74
:100DD000570B0E94A50602C00E945D06CE01DF915E
:100DE000CF9108950F931F93CF93DF93CDB7DEB7C5
:100DF00062970FB6F894DEBF0FBECDBF8C01CB015A
:100E0000F80111821082138212821582148250E03E
:100E1000BE016F5F7F4F0E948209BE016F5F7F4FEF
:100E2000C8010E94DB0662960FB6F894DEBF0FBEC3
:100E3000CDBFDF91CF911F910F910895EF92FF9257
:100E40000F931F93CF93DF936115710511F480E029
:100E50001CC041155105C1F07B01EC018C819D81C5
:100E60008A01080F191FB801CE010E948906882344
:100E700071F3288139818C819D81B701820F931F85
:100E80000E947B091D830C8381E0DF91CF911F912C
:100E90000F91FF90EF900895FB014481558160818F
:100EA00071810C941E076115710551F0FB010190D1
:100EB0000020E9F73197AF01461B570B0C941E0732
:100EC00080E008950895A1E21A2EAA1BBB1BFD0124
:100ED0000DC0AA1FBB1FEE1FFF1FA217B307E40719
:100EE000F50720F0A21BB30BE40BF50B661F771F71
:100EF000881F991F1A9469F7609570958095909551
:100F00009B01AC01BD01CF010895EE0FFF1F0590BD
:100F1000F491E02D09940F931F93CF93DF938230C8
:100F2000910510F482E090E0E091D703F091D803AE
:100F300020E030E0A0E0B0E0309719F1408151812D
:100F40000281138148175907C8F08417950769F47F
:100F5000109731F012960C93129713961C9327C09A
:100F60000093D7031093D80322C02115310519F03F
:100F70004217530718F49A01BD01EF01DF01F80190
:100F8000DBCF21153105F9F0281B390B2430310551
:100F900080F48A819B816115710521F0FB019383A7
:100FA000828304C09093D8038093D703FE013296C6
:100FB00044C0FE01E20FF31F819391932250310947
:100FC000398328833AC02091D5033091D603232B4F
:100FD00041F420910201309103013093D603209314
:100FE000D50320910001309101012115310541F413
:100FF0002DB73EB74091040150910501241B350BDC
:10100000E091D503F091D603E217F307A0F42E1B6D
:101010003F0B2817390778F0AC014E5F5F4F24175C
:10102000350748F04E0F5F1F5093D6034093D5030A
:101030008193919302C0E0E0F0E0CF01DF91CF9186
:101040001F910F910895CF93DF93009709F481C00A
:10105000FC01329713821282A091D703B091D8037A
:10106000109781F420813181820F931F2091D50345
:101070003091D6032817390751F5F093D603E09342
:10108000D50367C0ED0120E030E0CE17DF0740F464
:101090004A815B819E0141155105F1F0EA01F5CFCE
:1010A000D383C28340815181840F951FC817D9070C
:1010B00059F488819981840F951F029691838083CA
:1010C0008A819B81938382832115310529F4F093D2
:1010D000D803E093D7033DC0E901FB83EA8349913C
:1010E0005991C40FD51FEC17FD0761F480819181E0
:1010F000840F951F0296E9019983888382819381E9
:101100009B838A83E0E0F0E012968D919C91139787
:10111000009719F0FD01DC01F7CF8D919C9111979B
:101120009D012E5F3F4F820F931F2091D503309179
:10113000D6032817390769F4309729F41092D80399
:101140001092D70302C013821282B093D603A093E9
:10115000D503DF91CF910895A0E0B0E0E2EBF8E095
:101160000C94DC09EC01009721F4CB010E948B0761
:10117000B4C0FC01E60FF71F9C0122503109E217B1
:10118000F30708F4A8C0D9010D911C911197061717
:101190001707B0F00530110508F49BC0C80104978B
:1011A0008617970708F495C002501109061B170B04
:1011B000019311936D937C93CF010E94230889C002
:1011C0005B01A01AB10A4C01800E911EA091D703B9
:1011D000B091D803612C712CE12CF12C109709F4FB
:1011E00046C08D919C911197A815B905B1F56C0178
:1011F00042E0C40ED11CCA14DB0478F14C018A18F9
:101200009B08640142E0C40ED11C1296BC90129758
:101210001396AC91B5E0CB16D10440F0B282A38313
:1012200091828082D9016D937C9309C00E5F1F4F1C
:10123000800F911FF90191838083EB2DFA2FE11428
:10124000F10431F0D7011396FC93EE93129741C04D
:10125000F093D803E093D7033CC06816790608F4EE
:101260003C017D0112960D90BC91A02DB7CF8091CD
:10127000D5039091D60388169906E1F46616770691
:10128000C8F48091000190910101009741F48DB75D
:101290009EB74091040150910501841B950BE817FE
:1012A000F907C8F4F093D603E093D503F9017183ED
:1012B00060830FC0CB010E948B077C01009759F01F
:1012C000A801BE010E947209CE010E942308C70135
:1012D00004C0CE0102C080E090E0CDB7DEB7EEE002
:1012E0000C94F809FB01DC0102C001900D92415001
:1012F0005040D8F70895FB01DC0101900D920020C9
:10130000E1F708954532510520F4423010F00C9475
:101310008D09FB011082CB010895BB274A3031F4BF
:10132000992322F4BDE2909581959F4F0C949909E1
:10133000BB27FB015527AA27880F991FAA1FA417AF
:1013400010F0A41B83955051B9F7A05DAA3308F0A3
:10135000A95DA193009779F7B111B1931192CB01D7
:101360000C94B209DC01FC01672F71917723E1F73E
:10137000329704C07C916D9370836291AE17BF0762
:10138000C8F30895F999FECF92BD81BDF89A9927C7
:1013900080B50895262FF999FECF1FBA92BD81BD61
:1013A00020BD0FB6F894FA9AF99A0FBE01960895E7
:1013B0002F923F924F925F926F927F928F929F9265
:1013C000AF92BF92CF92DF92EF92FF920F931F9353
:1013D000CF93DF93CDB7DEB7CA1BDB0B0FB6F89404
:1013E000DEBF0FBECDBF09942A88398848885F8444
:1013F0006E847D848C849B84AA84B984C884DF80B5
:10140000EE80FD800C811B81AA81B981CE0FD11D98
:101410000FB6F894DEBF0FBECDBFED010895F8946E
:02142000FFCFFC
:101422000000D9032000A500090ACC33C33C69009F
:101432002E626D70000000000009037C04CA02568F
:08144200039C02B602A802009F
:00000001FF
