S00B00007372632E73726563D1
S11300000C945D000C9485000C9485000C94850080
S11300100C9485000C9485000C9461010C9485006B
S11300200C9485000C9485000C9485000C94850038
S11300300C9485000C9485000C9485000C94850028
S11300400C9440040C9485000C9477030C94A9033D
S11300500C9485000C9485000C9485000C94850008
S11300600C9485000C948500000000080002010037
S1130070000304070000000000000000010204085F
S113008010204080010204081020010204081020FE
S1130090040404040404040402020202020203032A
S11300A00303030300000000250028002B000000C8
S11300B00000240027002A00D90311241FBECFEF1B
S11300C0D8E0DEBFCDBF11E0A0E0B1E0E2E7F3E1AC
S11300D002C005900D92A832B107D9F723E0A8E237
S11300E0B1E001C01D92A53DB207E1F710E0CDE5F6
S11300F0D0E004C02197FE010E942D07CC35D10722
S1130100C9F70E9407040C94B7090C9400009C01E1
S1130110E8E2F1E080E0AF01485251404217530752
S11301201CF491918927F7CF08950F931F93CF93D0
S1130130DF938C01C8E2D1E0CE0188529140801750
S1130140910734F469918BE293E00E94A302F4CF07
S1130150DF91CF911F910F9108950F931F93CF9328
S1130160DF93EC0109900020E9F72197C81BD90B14
S11301708E01025F1F4FE8E2F1E025EA208311833C
S1130180028320E723837483658356834783BC01FA
S113019080E391E00E942309FE01E85DFE4F8CECB0
S11301A0818783E3828783EC83878CE384872D961E
S11301B0CE010E948700C85DDE4F8883C801DF91AD
S11301C0CF911F910F910C94950088E0E6E0F1E047
S11301D0A8E2B1E001900D928A95E1F788E090E001
S11301E00E9487008093300189E090E00C94950090
S11301F0CF93DF93C8E2D1E095EA988319829AE01D
S11302009A8397E09B838C838CEC8D8383E38E832A
S113021083EC8F838CE3888789E090E00E948700D9
S113022089878AE090E0DF91CF910C949500411189
S113023005C0EAE7F0E080818F7780836A30A9F017
S113024063FD02C088E001C088E26770682B88E122
S11302500FB6F894A895809360000FBE6093600079
S1130260E0E6F0E0808180648083211114C083B7CC
S1130270817F846083BFF89483B7816083BF85B72F
S1130280806685BF8F7D85BF7894889583B78E7F80
S113029083BF78940EC083B7817F846083BFF89452
S11302A083B7816083BF7894889583B78E7F83BF3B
S11302B07894411105C0EAE7F0E08081806880838A
S11302C008951F920F920FB60F9211248F930FB6B9
S11302D0F894A895809160008861809360001092E2
S11302E060000FBE8F910F900FBE0F901F90189556
S11302F01F93CF93DF93EC01188181E090E00E947B
S11303006A09181729F0612F81E090E00E947209B0
S1130310198182E090E00E946A09181729F0612F80
S113032082E090E00E947209CE01DF91CF911F918B
S11303300895CF93DF93CDB7DEB72E970FB6F89419
S1130340DEBF0FBECDBF61E084E00E944F0561E0D7
S113035084E00E948B0568EB7BE080E090E00E94E3
S1130360AF0481E00E94F8001E861D866EE071E0F5
S1130370CE0107960E942C0681E090E00E946A0953
S11303808D8782E090E00E946A098E878D859E8524
S113039001968C3491051CF49E878D8702C01E86BD
S11303A01D86CE010D960E9478016D857E854AE0FA
S11303B0CE0101960E94A106BE016F5F7F4FCE0160
S11303C007960E947E06CE0101960E94BB0560E15D
S11303D071E0CE0107960E94FB0640E050E060E029
S11303E070E08F8198850E94AD000E94E50060EA6C
S11303F07FE080E090E00E94AF0460E084E00E942F
S11304008B05CE0107960E94BB052E960FB6F89475
S1130410DEBF0FBECDBFDF91CF91089526E040E04F
S113042052EC61E070E08BE293E00E9412030C94C2
S113043099018091290390912A0381339A4234F0DF
S11304400E94990110922A03109229038091290392
S113045090912A03019690932A038093290320E024
S113046040E069E088E293E00C941701FC01918D6F
S1130470228D892F90E0805C9F4F821B91098F739E
S113048099270895FC01918D828D981731F0828D02
S1130490E80FF11D858D90E008958FEF9FEF08958B
S11304A0FC01918D828D981761F0828DDF01A80F78
S11304B0B11D5D968C91928D9F5F9F73928F90E09A
S11304C008958FEF9FEF0895FC01538D448D252FE0
S11304D030E0842F90E0821B930B541710F0CF96DA
S11304E00895019708958FEC93E0892B49F080E0FB
S11304F090E0892B29F00E94CF0381110C94000015
S11305000895FC01848DDF01A80FB11DA35ABF4FCC
S11305102C91848D90E001968F739927848FA689FE
S1130520B7892C93A089B1898C91837080648C9352
S1130530938D848D981306C00288F389E02D808101
S11305408F7D80830895EF92FF920F931F93CF9333
S1130550DF93EC0181E0888F9B8D8C8D981305C00F
S1130560E889F989808185FD26C0F62E0B8D10E07F
S11305700F5F1F4F0F731127E02E8C8DE8120CC0F4
S11305800FB607FCFACFE889F989808185FFF5CF9A
S1130590CE010E948102F1CF8B8DFE01E80FF11D87
S11305A0E35AFF4FF0829FB7F8940B8FEA89FB89D7
S11305B0808180620AC09FB7F894EE89FF896083C6
S11305C0E889F98980818370806480839FBF81E09A
S11305D090E0DF91CF911F910F91FF90EF900895DC
S11305E0CF93DF93EC01888D8823C9F0EA89FB89D6
S11305F0808185FD05C0A889B9898C9186FD0FC0CD
S11306000FB607FCF5CF808185FFF2CFA889B989A1
S11306108C9185FFEDCFCE010E948102E7CFDF915F
S1130620CF910895CF92DF92EF92FF921F93CF93D1
S1130630DF93EC016A017B01122FE889F98982E0DA
S113064080834115514E61057105B1F060E079E098
S11306508DE390E0A70196010E940B07DA01C9011E
S11306600197A109B109B695A795979587959C011E
S1130670211580E13807A8F0E889F989108260E83B
S113068074E88EE190E0A70196010E940B07DA015D
S1130690C9010197A109B109B695A79597958795C1
S11306A09C01EC85FD853083EE85FF852083188EC3
S11306B0EC89FD891083EA89FB89808180618083CC
S11306C0EA89FB89808188608083EA89FB8980814B
S11306D080688083EA89FB8980818F7D8083DF91B4
S11306E0CF911F91FF90EF90DF90CF9008951F92CC
S11306F00F920FB60F9211242F938F939F93EF9322
S1130700FF93E0913B03F0913C038081E09141032E
S1130710F091420382FD12C09081809144038F5F67
S11307208F7320914503821751F0E0914403F0E068
S1130730E55DFC4F958F8093440301C08081FF9158
S1130740EF919F918F912F910F900FBE0F901F905B
S113075018951F920F920FB60F9211242F933F9367
S11307604F935F936F937F938F939F93AF93BF93B5
S1130770EF93FF938BE293E00E948102FF91EF914C
S1130780BF91AF919F918F917F916F915F914F91A5
S11307903F912F910F900FBE0F901F9018958BE2F1
S11307A093E00E94360221E0892B09F420E0822F95
S11307B00895EBE2F3E01382128288EE93E0A0E066
S11307C0B0E084839583A683B78389E191E0918324
S11307D0808385EC90E09587848784EC90E097870C
S11307E0868780EC90E0918B808B81EC90E0938BFA
S11307F0828B82EC90E0958B848B86EC90E0978BD7
S1130800868B118E128E138E148E089508950E9475
S1130810EB040E9406040E940E02C3E7D2E00E9489
S113082019022097E1F30E947302F9CFCF92DF926D
S1130830EF92FF920F931F93CF93DF936C017A0192
S11308408B01C0E0D0E0CE15DF0581F0D8016D91B9
S11308508D01D601ED91FC910190F081E02DC6014E
S11308600995892B11F02196EECF7E01C701DF9106
S1130870CF911F910F91FF90EF90DF90CF9008954B
S11308801F920F920FB60F9211242F933F938F93C1
S11308909F93AF93BF938091C9039091CA03A09192
S11308A0CB03B091CC033091C80323E0230F2D3741
S11308B020F40196A11DB11D05C026E8230F029660
S11308C0A11DB11D2093C8038093C9039093CA034B
S11308D0A093CB03B093CC038091CD039091CE032E
S11308E0A091CF03B091D0030196A11DB11D8093B7
S11308F0CD039093CE03A093CF03B093D003BF91C5
S1130900AF919F918F913F912F910F900FBE0F90B8
S11309101F9018953FB7F8948091CD039091CE0322
S1130920A091CF03B091D00326B5A89B05C02F3F5B
S113093019F00196A11DB11D3FBFBA2FA92F982F01
S11309408827820F911DA11DB11DBC01CD0142E07C
S1130950660F771F881F991F4A95D1F708958F92C4
S11309609F92AF92BF92CF92DF92EF92FF926B0170
S11309707C010E948A044B015C01C114D104E1048E
S1130980F10401F10E940A070E948A04DC01CB01F0
S113099088199909AA09BB09883E9340A105B105A4
S11309A060F321E0C21AD108E108F10888EE880E4C
S11309B083E0981EA11CB11CC114D104E104F1040C
S11309C019F7DBCFFF90EF90DF90CF90BF90AF90FF
S11309D09F908F900895789484B5826084BD84B587
S11309E0816084BD85B5826085BD85B5816085BD26
S11309F0EEE6F0E0808181608083E1E8F0E010823F
S1130A00808182608083808181608083E0E8F0E07F
S1130A10808181608083E1EBF0E080818460808369
S1130A20E0EBF0E0808181608083EAE7F0E08081A0
S1130A308460808380818260808380818160808300
S1130A408081806880831092C1000895833081F092
S1130A5028F4813099F08230A1F008958730A9F00C
S1130A608830B9F08430D1F4809180008F7D03C048
S1130A70809180008F7780938000089584B58F776C
S1130A8002C084B58F7D84BD08958091B0008F77B6
S1130A9003C08091B0008F7D8093B0000895CF9300
S1130AA0DF9390E0FC01E458FF4F2491FC01E057F0
S1130AB0FF4F8491882361F190E0880F991FFC0116
S1130AC0E255FF4FC591D491FC01EC55FF4FA59120
S1130AD0B491611109C09FB7F8948881209582234D
S1130AE08883EC912E230BC0623061F49FB7F89495
S1130AF08881322F309583238883EC912E2B2C937D
S1130B009FBF06C08FB7F894E8812E2B28838FBF30
S1130B10DF91CF9108951F93CF93DF93282F30E077
S1130B20F901E859FF4F8491F901E458FF4FD4913A
S1130B30F901E057FF4FC491CC23C1F0162F811166
S1130B400E942605EC2FF0E0EE0FFF1FEC55FF4F3F
S1130B50A591B4919FB7F894111104C08C91D095CC
S1130B60D82302C0EC91DE2BDC939FBFDF91CF91A1
S1130B701F9108950895FC0180819181009711F0DF
S1130B800C94CB070895CF93DF93EC01888199816E
S1130B90009711F00E94CB07198218821D821C82D3
S1130BA01B821A82DF91CF9108950F931F93CF93E5
S1130BB0DF93EC018B016F5F7F4F888199810E94E5
S1130BC05408009731F0998388831B830A8381E05A
S1130BD001C080E0DF91CF911F910F910895CF93D1
S1130BE0DF93EC0188819981892B29F08A819B818B
S1130BF08617970760F4CE010E94D505882341F03B
S1130C008C819D81892B19F4E881F981108281E01E
S1130C10DF91CF910895EF92FF920F931F93CF939B
S1130C20DF93EC017B018A01BA010E94EF05811177
S1130C3004C0CE010E94C30507C01D830C83B70105
S1130C40888199810E942309CE01DF91CF911F9160
S1130C500F91FF90EF900895FC011182108213828E
S1130C601282158214826115710551F0FB01019005
S1130C700020E9F73197AF01461B570B0C940B0684
S1130C8008950F931F93CF93DF938C01EB01FC0125
S1130C90808191810097D1F0688179816115710516
S1130CA099F02AEB35E0232B79F0428153812C8192
S1130CB03D814217530740F00E9423098C819D8196
S1130CC0F8019583848313C00E94CB07888199819E
S1130CD0F801918380838A819B81938382838C81B1
S1130CE09D8195838483198218821B821A821D82B6
S1130CF01C82DF91CF911F910F910895CF93DF93C1
S1130D00EC018617970711F00E944106CE01DF918E
S1130D10CF910895CF93DF93EC016115710559F0DC
S1130D20FB0101900020E9F73197AF01461B570BF7
S1130D300E940B0602C00E94C305CE01DF91CF9131
S1130D4008950F931F93CF93DF93CDB7DEB76297C8
S1130D500FB6F894DEBF0FBECDBF8C01CB01F801F6
S1130D6011821082138212821582148250E0BE0115
S1130D706F5F7F4F0E942A09BE016F5F7F4FC801DA
S1130D800E948A0662960FB6F894DEBF0FBECDBFEE
S1130D90DF91CF911F910F910895EF92FF920F93DE
S1130DA01F93CF93DF936115710511F480E01CC08C
S1130DB041155105C1F07B01EC018C819D818A01B3
S1130DC0080F191FB801CE010E94EF05882371F3A3
S1130DD0288139818C819D81B701820F931F0E94E4
S1130DE023091D830C8381E0DF91CF911F910F9123
S1130DF0FF90EF9008956115710551F0FB0101908A
S1130E000020E9F73197AF01461B570B0C94CD0630
S1130E1080E008950895A1E21A2EAA1BBB1BFD01D0
S1130E200DC0AA1FBB1FEE1FFF1FA217B307E407C5
S1130E30F50720F0A21BB30BE40BF50B661F771F1D
S1130E40881F991F1A9469F76095709580959095FD
S1130E509B01AC01BD01CF010895EE0FFF1F05906A
S1130E60F491E02D09940F931F93CF93DF93823075
S1130E70910510F482E090E0E091D303F091D40363
S1130E8020E030E0A0E0B0E0309719F140815181DA
S1130E900281138148175907C8F08417950769F42C
S1130EA0109731F012960C93129713961C9327C047
S1130EB00093D3031093D40322C02115310519F0F4
S1130EC04217530718F49A01BD01EF01DF01F8013D
S1130ED0DBCF21153105F9F0281B390B24303105FE
S1130EE080F48A819B816115710521F0FB01938354
S1130EF0828304C09093D4038093D303FE0132967B
S1130F0044C0FE01E20FF31F8193919322503109F3
S1130F10398328833AC02091D1033091D203232B03
S1130F2041F420910201309103013093D2032093C4
S1130F30D10320910001309101012115310541F4C3
S1130F402DB73EB74091040150910501241B350B88
S1130F50E091D103F091D203E217F307A0F42E1B22
S1130F603F0B2817390778F0AC014E5F5F4F241709
S1130F70350748F04E0F5F1F5093D2034093D103BF
S1130F808193919302C0E0E0F0E0CF01DF91CF9133
S1130F901F910F910895CF93DF93009709F481C0B7
S1130FA0FC01329713821282A091D303B091D4032F
S1130FB0109781F420813181820F931F2091D103F6
S1130FC03091D2032817390751F5F093D203E093F7
S1130FD0D10367C0ED0120E030E0CE17DF0740F415
S1130FE04A815B819E0141155105F1F0EA01F5CF7B
S1130FF0D383C28340815181840F951FC817D907B9
S113100059F488819981840F951F02969183808376
S11310108A819B81938382832115310529F4F0937E
S1131020D403E093D3033DC0E901FB83EA834991F0
S11310305991C40FD51FEC17FD0761F4808191818C
S1131040840F951F0296E901998388838281938195
S11310509B838A83E0E0F0E012968D919C91139734
S1131060009719F0FD01DC01F7CF8D919C91119748
S11310709D012E5F3F4F820F931F2091D10330912A
S1131080D2032817390769F4309729F41092D4034E
S11310901092D30302C013821282B093D203A0939E
S11310A0D103DF91CF910895A0E0B0E0EAE5F8E044
S11310B00C948409EC01009721F4CB010E943307BE
S11310C0B4C0FC01E60FF71F9C0122503109E2175E
S11310D0F30708F4A8C0D9010D911C9111970617C4
S11310E01707B0F00530110508F49BC0C801049738
S11310F08617970708F495C002501109061B170BB1
S1131100019311936D937C93CF010E94CB0789C007
S11311105B01A01AB10A4C01800E911EA091D30369
S1131120B091D403612C712CE12CF12C109709F4AB
S113113046C08D919C911197A815B905B1F56C0124
S113114042E0C40ED11CCA14DB0478F14C018A18A5
S11311509B08640142E0C40ED11C1296BC90129705
S11311601396AC91B5E0CB16D10440F0B282A383C0
S113117091828082D9016D937C9309C00E5F1F4FC9
S1131180800F911FF90191838083EB2DFA2FE114D5
S1131190F10431F0D7011396FC93EE93129741C0FA
S11311A0F093D403E093D3033CC06816790608F4A3
S11311B03C017D0112960D90BC91A02DB7CF80917A
S11311C0D1039091D20388169906E1F46616770646
S11311D0C8F48091000190910101009741F48DB70A
S11311E09EB74091040150910501841B950BE817AB
S11311F0F907C8F4F093D203E093D103F9017183A2
S113120060830FC0CB010E9433077C01009759F023
S1131210A801BE010E941A09CE010E94CB07C70192
S113122004C0CE0102C080E090E0CDB7DEB7EEE0AE
S11312300C94A009FB01DC0102C001900D92415005
S11312405040D8F70895FB01DC0101900D92002075
S1131250E1F708954532510520F4423010F00C9422
S11312603509FB011082CB010895BB274A3031F4C4
S1131270992322F4BDE2909581959F4F0C944109E6
S1131280BB27FB015527AA27880F991FAA1FA4175C
S113129010F0A41B83955051B9F7A05DAA3308F050
S11312A0A95DA193009779F7B111B1931192CB0184
S11312B00C945A09DC01FC01672F71917723E1F743
S11312C0329704C07C916D9370836291AE17BF070F
S11312D0C8F30895F999FECF92BD81BDF89A992774
S11312E080B50895262FF999FECF1FBA92BD81BD0E
S11312F020BD0FB6F894FA9AF99A0FBE0196089594
S11313002F923F924F925F926F927F928F929F9211
S1131310AF92BF92CF92DF92EF92FF920F931F93FF
S1131320CF93DF93CDB7DEB7CA1BDB0B0FB6F894B0
S1131330DEBF0FBECDBF09942A88398848885F84F0
S11313406E847D848C849B84AA84B984C884DF8061
S1131350EE80FD800C811B81AA81B981CE0FD11D45
S11313600FB6F894DEBF0FBECDBFED010895F8941B
S1051370FFCFA9
S11313720000D5032000A500090ACC33C33C690050
S11313822E626D700000000000A30216046402F0D5
S10B139202360250024202007F
S9030000FC
