:100000000C9437000C945F000C945F000C945F001C
:100010000C945F000C945F000C9461000C945F00E2
:100020000C945F000C945F000C945F000C945F00D4
:100030000C945F000C945F000C945F000C945F00C4
:100040000C94D8020C945F000C94E4010C941602FA
:100050000C945F000C945F000C945F000C945F00A4
:100060000C945F000C945F00990046029F001124DD
:100070001FBECFEFD8E0DEBFCDBF11E0A0E0B1E002
:10008000E0E5FDE002C005900D92A034B107D9F77C
:1000900021E0A0E4B1E001C01D92A03FB207E1F76A
:1000A00010E0C6E3D0E004C02197FE010E9467047F
:1000B000C433D107C9F70E9474020C949B060C94B8
:1000C00000001F920F920FB60F9211248F930FB65C
:1000D000F894A895809160008861809360001092E8
:1000E00060000FBE8F910F900FBE0F901F9018955C
:1000F00026E040E855E260E070E086E491E00E948E
:100100007F0166E071E086E491E00E94C60268EE3D
:1001100073E080E090E00C9447036BE071E086E4CC
:1001200091E00E94C60264EF71E080E090E00C94E0
:10013000470362E371E080E491E00C942F0480E4D3
:1001400091E00C94BE03FC01918D228D892F90E0EB
:10015000805C9F4F821B91098F7399270895FC0142
:10016000918D828D981731F0828DE80FF11D858D6C
:1001700090E008958FEF9FEF0895FC01918D828D9F
:10018000981761F0828DDF01A80FB11D5D968C91EB
:10019000928D9F5F9F73928F90E008958FEF9FEFF6
:1001A0000895FC01538D448D252F30E0842F90E07D
:1001B000821B930B541710F0CF9608950197089562
:1001C0008CE392E0892B49F080E090E0892B29F0C4
:1001D0000E943C0281110C9400000895FC01848D62
:1001E000DF01A80FB11DA35ABF4F2C91848D90E061
:1001F00001968F739927848FA689B7892C93A0893C
:10020000B1898C91837080648C93938D848D9813C5
:1002100006C00288F389E02D80818F7D8083089558
:10022000EF92FF920F931F93CF93DF93EC0181E046
:10023000888F9B8D8C8D981305C0E889F989808102
:1002400085FD26C0F62E0B8D10E00F5F1F4F0F733C
:100250001127E02E8C8DE8120CC00FB607FCFACFE8
:10026000E889F989808185FFF5CFCE010E94EE00F3
:10027000F1CF8B8DFE01E80FF11DE35AFF4FF082A5
:100280009FB7F8940B8FEA89FB89808180620AC04E
:100290009FB7F894EE89FF896083E889F9898081A6
:1002A0008370806480839FBF81E090E0DF91CF9175
:1002B0001F910F91FF90EF900895CF93DF93EC0182
:1002C000888D8823C9F0EA89FB89808185FD05C076
:1002D000A889B9898C9186FD0FC00FB607FCF5CFB0
:1002E000808185FFF2CFA889B9898C9185FFEDCFF8
:1002F000CE010E94EE00E7CFDF91CF910895CF921B
:10030000DF92EF92FF921F93CF93DF93EC016A018C
:100310007B01122FE889F98982E080834115514ED3
:1003200061057105B1F060E079E08DE390E0A7012F
:1003300096010E944504DA01C9010197A109B1099A
:10034000B695A795979587959C01211580E138076B
:10035000A8F0E889F989108260E874E88EE190E0FD
:10036000A70196010E944504DA01C9010197A1097C
:10037000B109B695A795979587959C01EC85FD8564
:100380003083EE85FF852083188EEC89FD891083EC
:10039000EA89FB89808180618083EA89FB89808189
:1003A00088608083EA89FB89808180688083EA890C
:1003B000FB8980818F7D8083DF91CF911F91FF909A
:1003C000EF90DF90CF9008951F920F920FB60F928B
:1003D00011242F938F939F93EF93FF93E0915601F6
:1003E000F09157018081E0915C01F0915D0182FD07
:1003F00012C0908180915F018F5F8F7320916001A7
:10040000821751F0E0915F01F0E0EA5BFE4F958FBB
:1004100080935F0101C08081FF91EF919F918F9147
:100420002F910F900FBE0F901F9018951F920F9253
:100430000FB60F9211242F933F934F935F936F93B7
:100440007F938F939F93AF93BF93EF93FF9386E434
:1004500091E00E94EE00FF91EF91BF91AF919F91CB
:100460008F917F916F915F914F913F912F910F905D
:100470000FBE0F901F90189586E491E00E94A30094
:1004800021E0892B09F420E0822F0895E6E4F1E0D1
:100490001382128288EE93E0A0E0B0E0848395831B
:1004A000A683B78382E291E09183808385EC90E01C
:1004B0009587848784EC90E09787868780EC90E02E
:1004C000918B808B81EC90E0938B828B82EC90E01F
:1004D000958B848B86EC90E0978B868B118E128E99
:1004E000138E148E089508950E9483030E94730250
:1004F0000E947800C0EED0E00E948D002097E1F3CA
:100500000E94E000F9CFCF92DF92EF92FF920F931B
:100510001F93CF93DF936C017A018B01C0E0D0E091
:10052000CE15DF0581F0D8016D918D01D601ED91D9
:10053000FC910190F081E02DC6010995892B11F005
:100540002196EECF7E01C701DF91CF911F910F91D0
:10055000FF90EF90DF90CF9008956115710579F0CD
:10056000FB0101900020E9F73197AF01461B570BC3
:10057000DC01ED91FC910280F381E02D099480E093
:1005800090E0089560E371E00C94AD020F931F9327
:10059000CF93DF93EC010E94AD028C01CE010E944B
:1005A000C202800F911FDF91CF911F910F9108958B
:1005B0001F920F920FB60F9211242F933F938F9398
:1005C0009F93AF93BF938091E4019091E501A09137
:1005D000E601B091E7013091E30123E0230F2D37CD
:1005E00020F40196A11DB11D05C026E8230F029637
:1005F000A11DB11D2093E3018093E4019093E501D7
:10060000A093E601B093E7018091E8019091E901A0
:10061000A091EA01B091EB010196A11DB11D80935B
:10062000E8019093E901A093EA01B093EB01BF9137
:10063000AF919F918F913F912F910F900FBE0F908F
:100640001F9018953FB7F8948091E8019091E901C7
:10065000A091EA01B091EB0126B5A89B05C02F3F00
:1006600019F00196A11DB11D3FBFBA2FA92F982FD8
:100670008827820F911DA11DB11DBC01CD0142E053
:10068000660F771F881F991F4A95D1F708958F929B
:100690009F92AF92BF92CF92DF92EF92FF926B0147
:1006A0007C010E9422034B015C01C114D104E104CE
:1006B000F10401F10E9444040E942203DC01CB01F9
:1006C00088199909AA09BB09883E9340A105B1057B
:1006D00060F321E0C21AD108E108F10888EE880E23
:1006E00083E0981EA11CB11CC114D104E104F104E3
:1006F00019F7DBCFFF90EF90DF90CF90BF90AF90D6
:100700009F908F900895789484B5826084BD84B55D
:10071000816084BD85B5826085BD85B5816085BDFC
:10072000EEE6F0E0808181608083E1E8F0E0108215
:10073000808182608083808181608083E0E8F0E056
:10074000808181608083E1EBF0E080818460808340
:10075000E0EBF0E0808181608083EAE7F0E0808177
:1007600084608083808182608083808181608083D7
:100770008081806880831092C1000895FC0180818F
:100780009181009711F00C9405050895CF93DF93A4
:10079000EC0188819981009711F00E94050519826A
:1007A00018821D821C821B821A82DF91CF910895CC
:1007B0000F931F93CF93DF93EC018B016F5F7F4FFC
:1007C000888199810E948E05009731F099838883F2
:1007D0001B830A8381E001C080E0DF91CF911F91EC
:1007E0000F910895CF93DF93EC0188819981892B34
:1007F00029F08A819B818617970760F4CE010E94B9
:10080000D803882341F08C819D81892B19F4E881DC
:10081000F981108281E0DF91CF910895EF92FF92EC
:100820000F931F93CF93DF93EC017B018A01BA01F1
:100830000E94F203811104C0CE010E94C60307C0CA
:100840001D830C83B701888199810E945D06CE01CA
:10085000DF91CF911F910F91FF90EF900895FC01D0
:100860001182108213821282158214826115710521
:1008700051F0FB0101900020E9F73197AF01461BD1
:10088000570B0C940E0408950895A1E21A2EAA1B8A
:10089000BB1BFD010DC0AA1FBB1FEE1FFF1FA21730
:1008A000B307E407F50720F0A21BB30BE40BF50B2D
:1008B000661F771F881F991F1A9469F760957095B6
:1008C000809590959B01AC01BD01CF010895EE0F7D
:1008D000FF1F0590F491E02D09940F931F93CF9380
:1008E000DF938230910510F482E090E0E091EE0118
:1008F000F091EF0120E030E0A0E0B0E0309719F196
:10090000408151810281138148175907C8F084172B
:10091000950769F4109731F012960C93129713967D
:100920001C9327C00093EE011093EF0122C0211504
:10093000310519F04217530718F49A01BD01EF0170
:10094000DF01F801DBCF21153105F9F0281B390B48
:100950002430310580F48A819B816115710521F075
:10096000FB019383828304C09093EF018093EE0197
:10097000FE01329644C0FE01E20FF31F8193919372
:1009800022503109398328833AC02091EC013091FB
:10099000ED01232B41F420910201309103013093AA
:1009A000ED012093EC01209100013091010121150E
:1009B000310541F42DB73EB7409104015091050136
:1009C000241B350BE091EC01F091ED01E217F307E8
:1009D000A0F42E1B3F0B2817390778F0AC014E5FAF
:1009E0005F4F2417350748F04E0F5F1F5093ED01FE
:1009F0004093EC018193919302C0E0E0F0E0CF01DD
:100A0000DF91CF911F910F910895CF93DF930097BE
:100A100009F481C0FC01329713821282A091EE0189
:100A2000B091EF01109781F420813181820F931FE3
:100A30002091EC013091ED012817390751F5F09321
:100A4000ED01E093EC0167C0ED0120E030E0CE174E
:100A5000DF0740F44A815B819E0141155105F1F0A9
:100A6000EA01F5CFD383C28340815181840F951F62
:100A7000C817D90759F488819981840F951F029668
:100A8000918380838A819B819383828321153105A1
:100A900029F4F093EF01E093EE013DC0E901FB83FF
:100AA000EA8349915991C40FD51FEC17FD0761F4F2
:100AB00080819181840F951F0296E9019983888333
:100AC000828193819B838A83E0E0F0E012968D918E
:100AD0009C911397009719F0FD01DC01F7CF8D91E0
:100AE0009C9111979D012E5F3F4F820F931F209184
:100AF000EC013091ED012817390769F4309729F49A
:100B00001092EF011092EE0102C013821282B09394
:100B1000ED01A093EC01DF91CF910895A0E0B0E04A
:100B2000E4E9F5E00C946806EC01009721F4CB01B0
:100B30000E946D04B4C0FC01E60FF71F9C01225017
:100B40003109E217F30708F4A8C0D9010D911C91EF
:100B5000119706171707B0F00530110508F49BC070
:100B6000C80104978617970708F495C00250110929
:100B7000061B170B019311936D937C93CF010E9479
:100B8000050589C05B01A01AB10A4C01800E911EB7
:100B9000A091EE01B091EF01612C712CE12CF12CB0
:100BA000109709F446C08D919C911197A815B9052D
:100BB000B1F56C0142E0C40ED11CCA14DB0478F11B
:100BC0004C018A189B08640142E0C40ED11C1296A5
:100BD000BC9012971396AC91B5E0CB16D10440F0BF
:100BE000B282A38391828082D9016D937C9309C0E4
:100BF0000E5F1F4F800F911FF90191838083EB2DB2
:100C0000FA2FE114F10431F0D7011396FC93EE931F
:100C1000129741C0F093EF01E093EE013CC06816DB
:100C2000790608F43C017D0112960D90BC91A02D2F
:100C3000B7CF8091EC019091ED0188169906E1F40F
:100C400066167706C8F48091000190910101009723
:100C500041F48DB79EB74091040150910501841B6A
:100C6000950BE817F907C8F4F093ED01E093EC0158
:100C7000F901718360830FC0CB010E946D047C0178
:100C8000009759F0A801BE010E945406CE010E94AF
:100C90000505C70104C0CE0102C080E090E0CDB7D9
:100CA000DEB7EEE00C948406FB01DC0102C001908B
:100CB0000D9241505040D8F70895FB01DC0101909E
:100CC0000D920020E1F708952F923F924F925F928C
:100CD0006F927F928F929F92AF92BF92CF92DF924C
:100CE000EF92FF920F931F93CF93DF93CDB7DEB7B1
:100CF000CA1BDB0B0FB6F894DEBF0FBECDBF099445
:100D00002A88398848885F846E847D848C849B849B
:100D1000AA84B984C884DF80EE80FD800C811B81A9
:100D2000AA81B981CE0FD11D0FB6F894DEBF0FBED8
:100D3000CDBFED01089510E0C6E3D0E004C0FE0190
:100D40000E9467042196C733D107C9F7F894FFCFF3
:100D50000000F0012000696E697400476F696E67DA
:100D600020746F20736C656570206E6F77000000D3
:100D7000000010018302D1005D01A300BD00AF009F
:100D80000D0A006E616E00696E66006F7666000087
:00000001FF
