:100000000C945D000C9485000C9485000C94850084
:100010000C9485000C9485000C9461010C9485006F
:100020000C9485000C9485000C9485000C9485003C
:100030000C9485000C9485000C9485000C9485002C
:100040000C94EF030C9485000C9426030C94580335
:100050000C9485000C9485000C9485000C9485000C
:100060000C9485000C94850000000008000201003B
:100070000003040700000000000000000102040863
:100080001020408001020408102001020408102002
:10009000040404040404040402020202020203032E
:1000A0000303030300000000250028002B000000CC
:1000B0000000240027002A00880311241FBECFEF70
:1000C000D8E0DEBFCDBF11E0A0E0B1E0EEEBF0E1A3
:1000D00002C005900D92A635B107D9F724E0A6E538
:1000E000B1E001C01D92A330B207E1F710E0CDE509
:1000F000D0E004C02197FE010E942906CC35D1072B
:10010000C9F70E94B6030C945D080C9400009C0192
:10011000E6E5F1E080E0AF01465551404217530754
:100120001CF491918927F7CF08950F931F93CF93D4
:10013000DF938C01C6E5D1E0CE0186559140801752
:10014000910734F4699189E593E00E945202F4CF5B
:10015000DF91CF911F910F9108950F931F93CF932C
:10016000DF93EC0109900020E9F72197C81BD90B18
:100170008E01025F1F4FE6E5F1E025EA208311833F
:10018000028320E723837483658356834783BC01FE
:100190008EE591E00E941F08FE01EA5AFE4F8CECAA
:1001A000818783E3828783EC83878CE384872D9622
:1001B000CE010E948700CA5ADE4F8883C801DF91B2
:1001C000CF911F910F910C94950088E0E6E0F1E04B
:1001D000A6E5B1E001900D928A95E1F788E090E004
:1001E0000E94870080935E0189E090E00C94950066
:1001F000CF93DF93C6E5D1E095EA988319829AE020
:100200009A8397E09B838C838CEC8D8383E38E832E
:1002100083EC8F838CE3888789E090E00E948700DD
:1002200089878AE090E0DF91CF910C94950041118D
:1002300005C0EAE7F0E080818F7780836A30A9F01B
:1002400063FD02C088E001C088E26770682B88E126
:100250000FB6F894A895809360000FBE609360007D
:10026000E0E6F0E0808180648083211114C083B7D0
:10027000817F846083BFF89483B7816083BF85B733
:10028000806685BF8F7D85BF7894889583B78E7F84
:1002900083BF78940EC083B7817F846083BFF89456
:1002A00083B7816083BF7894889583B78E7F83BF3F
:1002B0007894411105C0EAE7F0E08081806880838E
:1002C00008951F920F920FB60F9211248F930FB6BD
:1002D000F894A895809160008861809360001092E6
:1002E00060000FBE8F910F900FBE0F901F9018955A
:1002F000CF93DF9300D000D000D0CDB7DEB761E060
:1003000084E00E943A0568EB7BE080E090E00E9488
:100310005E0481E00E94F8006EE071E0CE0101967B
:100320000E94DA0560E171E0CE0101960E94EF05BE
:1003300040E050E060E070E089819A810E94AD0069
:100340000E94E50060EA7FE080E090E00E945E04A9
:1003500060E084E00E943A05CE0101960E946905A2
:1003600026960FB6F894DEBF0FBECDBFDF91CF91BA
:10037000089561E084E00E94FE0426E040E052EC33
:1003800061E070E089E593E00E94C1020C9478017D
:10039000809157039091580381339A4234F00E9420
:1003A000780110925803109257038091570390914F
:1003B00058030196909358038093570320E040E040
:1003C00069E086E593E00C941701FC01918D228D84
:1003D000892F90E0805C9F4F821B91098F73992732
:1003E0000895FC01918D828D981731F0828DE80F70
:1003F000F11D858D90E008958FEF9FEF0895FC012A
:10040000918D828D981761F0828DDF01A80FB11D4B
:100410005D968C91928D9F5F9F73928F90E008956F
:100420008FEF9FEF0895FC01538D448D252F30E011
:10043000842F90E0821B930B541710F0CF960895F1
:10044000019708958EE793E0892B49F080E090E0D2
:10045000892B29F00E947E0381110C9400000895DD
:10046000FC01848DDF01A80FB11DA35ABF4F2C9151
:10047000848D90E001968F739927848FA689B78920
:100480002C93A089B1898C91837080648C93938D17
:10049000848D981306C00288F389E02D80818F7DBA
:1004A00080830895EF92FF920F931F93CF93DF9372
:1004B000EC0181E0888F9B8D8C8D981305C0E889B5
:1004C000F989808185FD26C0F62E0B8D10E00F5F27
:1004D0001F4F0F731127E02E8C8DE8120CC00FB642
:1004E00007FCFACFE889F989808185FFF5CFCE0135
:1004F0000E943002F1CF8B8DFE01E80FF11DE35A0F
:10050000FF4FF0829FB7F8940B8FEA89FB898081B7
:1005100080620AC09FB7F894EE89FF896083E889FA
:10052000F98980818370806480839FBF81E090E03F
:10053000DF91CF911F910F91FF90EF900895CF938E
:10054000DF93EC01888D8823C9F0EA89FB898081DB
:1005500085FD05C0A889B9898C9186FD0FC00FB6AD
:1005600007FCF5CF808185FFF2CFA889B9898C91EE
:1005700085FFEDCFCE010E943002E7CFDF91CF9112
:100580000895CF92DF92EF92FF921F93CF93DF9364
:10059000EC016A017B01122FE889F98982E08083EE
:1005A0004115514E61057105B1F060E079E08DE3D0
:1005B00090E0A70196010E940706DA01C9010197A0
:1005C000A109B109B695A795979587959C01211525
:1005D00080E13807A8F0E889F989108260E874E8BA
:1005E0008EE190E0A70196010E940706DA01C90199
:1005F0000197A109B109B695A795979587959C0193
:10060000EC85FD853083EE85FF852083188EEC898F
:10061000FD891083EA89FB89808180618083EA8972
:10062000FB89808188608083EA89FB89808180687A
:100630008083EA89FB8980818F7D8083DF91CF91E0
:100640001F91FF90EF90DF90CF9008951F920F922F
:100650000FB60F9211242F938F939F93EF93FF93D5
:10066000E0916903F0916A038081E0916F03F0915A
:10067000700382FD12C09081809172038F5F8F732F
:1006800020917303821751F0E0917203F0E0E75A72
:10069000FC4F958F8093720301C08081FF91EF9191
:1006A0009F918F912F910F900FBE0F901F901895D3
:1006B0001F920F920FB60F9211242F933F934F93D7
:1006C0005F936F937F938F939F93AF93BF93EF93BA
:1006D000FF9389E593E00E943002FF91EF91BF9173
:1006E000AF919F918F917F916F915F914F913F91CA
:1006F0002F910F900FBE0F901F90189589E593E0F2
:100700000E94E50121E0892B09F420E0822F089561
:10071000E9E5F3E01382128288EE93E0A0E0B0E016
:1007200084839583A683B78388E491E09183808353
:1007300085EC90E09587848784EC90E097878687A6
:1007400080EC90E0918B808B81EC90E0938B828B9E
:1007500082EC90E0958B848B86EC90E0978B868B77
:10076000118E128E138E148E089508950E949A048D
:100770000E94B5030E94B901C2E2D2E00E94C80102
:100780002097E1F30E942202F9CFCF92DF92EF92FD
:10079000FF920F931F93CF93DF936C017A018B012C
:1007A000C0E0D0E0CE15DF0581F0D8016D918D015C
:1007B000D601ED91FC910190F081E02DC6010995E3
:1007C000892B11F02196EECF7E01C701DF91CF91E9
:1007D0001F910F91FF90EF90DF90CF9008951F929F
:1007E0000F920FB60F9211242F933F938F939F93E5
:1007F000AF93BF938091F7039091F803A091F90311
:10080000B091FA033091F60323E0230F2D3720F443
:100810000196A11DB11D05C026E8230F0296A11D5A
:10082000B11D2093F6038093F7039093F803A093F0
:10083000F903B093FA038091FB039091FC03A0911C
:10084000FD03B091FE030196A11DB11D8093FB0332
:100850009093FC03A093FD03B093FE03BF91AF916F
:100860009F918F913F912F910F900FBE0F901F90EE
:1008700018953FB7F8948091FB039091FC03A091E9
:10088000FD03B091FE0326B5A89B05C02F3F19F0CC
:100890000196A11DB11D3FBFBA2FA92F982F882700
:1008A000820F911DA11DB11DBC01CD0142E0660F5B
:1008B000771F881F991F4A95D1F708958F929F92AD
:1008C000AF92BF92CF92DF92EF92FF926B017C01C9
:1008D0000E9439044B015C01C114D104E104F1040C
:1008E00001F10E9406060E943904DC01CB0188193F
:1008F0009909AA09BB09883E9340A105B10560F397
:1009000021E0C21AD108E108F10888EE880E83E0E0
:10091000981EA11CB11CC114D104E104F10419F703
:10092000DBCFFF90EF90DF90CF90BF90AF909F9084
:100930008F900895789484B5826084BD84B5816079
:1009400084BD85B5826085BD85B5816085BDEEE6D7
:10095000F0E0808181608083E1E8F0E010828081B6
:1009600082608083808181608083E0E8F0E0808124
:1009700081608083E1EBF0E0808184608083E0EB44
:10098000F0E0808181608083EAE7F0E0808184602C
:100990008083808182608083808181608083808188
:1009A000806880831092C1000895833081F028F41C
:1009B000813099F08230A1F008958730A9F0883015
:1009C000B9F08430D1F4809180008F7D03C0809194
:1009D00080008F7780938000089584B58F7702C060
:1009E00084B58F7D84BD08958091B0008F7703C05A
:1009F0008091B0008F7D8093B0000895CF93DF93F6
:100A000090E0FC01E458FF4F2491FC01E057FF4FB8
:100A10008491882361F190E0880F991FFC01E255D1
:100A2000FF4FC591D491FC01EC55FF4FA591B491B6
:100A3000611109C09FB7F89488812095822388832B
:100A4000EC912E230BC0623061F49FB7F89488813B
:100A5000322F309583238883EC912E2B2C939FBFCC
:100A600006C08FB7F894E8812E2B28838FBFDF91C3
:100A7000CF9108951F93CF93DF93282F30E0F90192
:100A8000E859FF4F8491F901E458FF4FD491F901DF
:100A9000E057FF4FC491CC23C1F0162F81110E9463
:100AA000D504EC2FF0E0EE0FFF1FEC55FF4FA591A2
:100AB000B4919FB7F894111104C08C91D095D823AC
:100AC00002C0EC91DE2BDC939FBFDF91CF911F9191
:100AD0000895FC0180819181009711F00C94C70664
:100AE0000895CF93DF93EC0188819981009711F0ED
:100AF0000E94C706198218821D821C821B821A82DC
:100B0000DF91CF9108950F931F93CF93DF93EC0163
:100B10008B016F5F7F4F888199810E9450070097FA
:100B200031F0998388831B830A8381E001C080E0D0
:100B3000DF91CF911F910F910895CF93DF93EC0137
:100B400088819981892B29F08A819B818617970753
:100B500060F4CE010E948305882341F08C819D8141
:100B6000892B19F4E881F981108281E0DF91CF911E
:100B70000895EF92FF920F931F93CF93DF93EC01B1
:100B80007B018A01BA010E949D05811104C0CE013A
:100B90000E94710507C01D830C83B701888199816C
:100BA0000E941F08CE01DF91CF911F910F91FF90FE
:100BB000EF900895FC011182108213821282158237
:100BC00014826115710551F0FB0101900020E9F7D5
:100BD0003197AF01461B570B0C94B9050895CF937D
:100BE000DF93EC016115710559F0FB0101900020C4
:100BF000E9F73197AF01461B570B0E94B90502C0B8
:100C00000E947105CE01DF91CF9108950895A1E270
:100C10001A2EAA1BBB1BFD010DC0AA1FBB1FEE1F76
:100C2000FF1FA217B307E407F50720F0A21BB30BC1
:100C3000E40BF50B661F771F881F991F1A9469F73D
:100C400060957095809590959B01AC01BD01CF0199
:100C50000895EE0FFF1F0590F491E02D09940F9376
:100C60001F93CF93DF938230910510F482E090E0E0
:100C7000E0910104F091020420E030E0A0E0B0E057
:100C8000309719F14081518102811381481759072A
:100C9000C8F08417950769F4109731F012960C93F9
:100CA000129713961C9327C000930104109302041B
:100CB00022C02115310519F04217530718F49A0183
:100CC000BD01EF01DF01F801DBCF21153105F9F09E
:100CD000281B390B2430310580F48A819B816115F2
:100CE000710521F0FB019383828304C09093020479
:100CF00080930104FE01329644C0FE01E20FF31F0F
:100D00008193919322503109398328833AC02091ED
:100D1000FF0330910004232B41F420910201309114
:100D20000301309300042093FF03209100013091D0
:100D300001012115310541F42DB73EB74091040161
:100D400050910501241B350BE091FF03F091000445
:100D5000E217F307A0F42E1B3F0B2817390778F092
:100D6000AC014E5F5F4F2417350748F04E0F5F1FF1
:100D7000509300044093FF038193919302C0E0E0FD
:100D8000F0E0CF01DF91CF911F910F910895CF93A4
:100D9000DF93009709F481C0FC013297138212821D
:100DA000A0910104B0910204109781F42081318157
:100DB000820F931F2091FF033091000428173907F9
:100DC00051F5F0930004E093FF0367C0ED0120E0CC
:100DD00030E0CE17DF0740F44A815B819E01411568
:100DE0005105F1F0EA01F5CFD383C28340815181EF
:100DF000840F951FC817D90759F488819981840FEA
:100E0000951F0296918380838A819B81938382833D
:100E10002115310529F4F0930204E09301043DC04B
:100E2000E901FB83EA8349915991C40FD51FEC175F
:100E3000FD0761F480819181840F951F0296E9017D
:100E400099838883828193819B838A83E0E0F0E0A9
:100E500012968D919C911397009719F0FD01DC017A
:100E6000F7CF8D919C9111979D012E5F3F4F820F7F
:100E7000931F2091FF03309100042817390769F46C
:100E8000309729F4109202041092010402C01382D8
:100E90001282B0930004A093FF03DF91CF910895D5
:100EA000A0E0B0E0E6E5F7E00C942A08EC0100973A
:100EB00021F4CB010E942F06B4C0FC01E60FF71FFE
:100EC0009C0122503109E217F30708F4A8C0D901A8
:100ED0000D911C91119706171707B0F005301105F9
:100EE00008F49BC0C80104978617970708F495C0BB
:100EF00002501109061B170B019311936D937C93FC
:100F0000CF010E94C70689C05B01A01AB10A4C013B
:100F1000800E911EA0910104B0910204612C712CED
:100F2000E12CF12C109709F446C08D919C911197FA
:100F3000A815B905B1F56C0142E0C40ED11CCA1464
:100F4000DB0478F14C018A189B08640142E0C40E6E
:100F5000D11C1296BC9012971396AC91B5E0CB16AB
:100F6000D10440F0B282A38391828082D9016D9333
:100F70007C9309C00E5F1F4F800F911FF901918371
:100F80008083EB2DFA2FE114F10431F0D701139691
:100F9000FC93EE93129741C0F0930204E093010496
:100FA0003CC06816790608F43C017D0112960D904C
:100FB000BC91A02DB7CF8091FF03909100048816BB
:100FC0009906E1F466167706C8F4809100019091C5
:100FD0000101009741F48DB79EB7409104015091F3
:100FE0000501841B950BE817F907C8F4F09300047A
:100FF000E093FF03F901718360830FC0CB010E946E
:101000002F067C01009759F0A801BE010E94160826
:10101000CE010E94C706C70104C0CE0102C080E015
:1010200090E0CDB7DEB7EEE00C944608FB01DC01A2
:1010300002C001900D9241505040D8F70895FB0135
:10104000DC0101900D920020E1F708952F923F926C
:101050004F925F926F927F928F929F92AF92BF92C8
:10106000CF92DF92EF92FF920F931F93CF93DF9374
:10107000CDB7DEB7CA1BDB0B0FB6F894DEBF0FBED1
:10108000CDBF09942A88398848885F846E847D841E
:101090008C849B84AA84B984C884DF80EE80FD8020
:1010A0000C811B81AA81B981CE0FD11D0FB6F89496
:0E10B000DEBF0FBECDBFED010895F894FFCF57
:1010BE00000003042000A500090ACC33C33C6900DC
:1010CE0069302E626D7000436F6D6D656E742074A5
:1010DE006869732066756E6374696F6E206F7574C0
:1010EE0020616E642072657374617274206465761B
:1010FE0069636500000000005202C50313029F02DF
:06110E00E501FF01F10103
:00000001FF
