:100000000C945F000C9487000C9487000C9487007C
:100010000C9487000C9487000C94B1010C94870019
:100020000C9487000C9487000C9487000C94870034
:100030000C9487000C9487000C9487000C94870024
:100040000C946D040C9487000C94A4030C94D603B8
:100050000C9487000C9487000C9487000C94870004
:100060000C9487000C948700000000080002010037
:100070000003040700000000000000000102040863
:100080001020408001020408102001020408102002
:10009000040404040404040402020202020203032E
:1000A0000303030300000000250028002B000000CC
:1000B0000000240027002A00590206045F021124D0
:1000C0001FBECFEFD8E0DEBFCDBF11E0A0E0B1E0B2
:1000D000E8EBF1E102C005900D92A234B107D9F727
:1000E00023E0A2E4B1E001C01D92A23FB207E1F714
:1000F00010E0CEE5D0E004C02197FE010E949B06EF
:10010000CC35D107C9F70E9434040C94CF080C9465
:1001100000009C01E2E4F1E080E0AF014254514074
:10012000421753071CF491918927F7CF0895CF9375
:10013000C82F60E00E94C3058AE090E00E94180585
:1001400061E08C2F0E94C30584EF91E00E941805A6
:1001500060E08C2F0E94C3056AE070E080E090E0D0
:10016000CF910C94DC040F931F93CF93DF938C01FA
:10017000C2E4D1E0CE01825491408017910734F45B
:10018000699188E493E00E94D002F4CFDF91CF918F
:100190001F910F9108950F931F93CF93DF93EC015D
:1001A00009900020E9F72197C81BD90B8E01025F47
:1001B0001F4FE2E4F1E025EA20831183028320E36C
:1001C00023837483658356834783BC018AE491E06B
:1001D0000E949108FE01EE5BFE4F8CEC818783E369
:1001E000828783EC83878CE384872D96CE010E94DF
:1001F0008900CE5BDE4F8883C801DF91CF911F91CC
:100200000F910C94B300CF93DF93C2E4D1E085EA61
:100210008883198289E08A838EE28B838CEC8C83BD
:1002200083E38D8383EC8E838CE38F8388E090E07F
:100230000E948900888789E090E0DF91CF910C943B
:10024000B300CF93DF93C2E4D1E095EA988319829B
:100250009AE09A839FE19B838C838CEC8D8383E36C
:100260008E8383EC8F838CE3888789E090E00E9403
:10027000890089878AE090E0DF91CF910C94B300E8
:10028000CF93DF93C2E4D1E095EA988319829AE094
:100290009A839EE19B838C838CEC8D8383E38E8396
:1002A00083EC8F838CE3888789E090E00E9489004B
:1002B00089878AE090E0DF91CF910C94B300CF93CF
:1002C000DF93C2E4D1E095EA988319829BE09A8398
:1002D00090E19B838C836D838CEC8E8383E38F838F
:1002E00083EC88878CE389878AE090E00E9489000C
:1002F0008A878BE090E0DF91CF910C94B30088E087
:10030000E6E0F1E0A2E4B1E001900D928A95E1F718
:1003100088E090E00E94890080934A0189E090E0A3
:100320000C94B300CF93DF93C2E4D1E095EA9883B5
:1003300019829AE09A8397E09B838C838CEC8D835F
:1003400083E38E8383EC8F838CE3888789E090E05E
:100350000E94890089878AE090E0DF91CF910C9418
:10036000B3001F920F920FB60F9211248F930FB606
:10037000F894A89580916000886180936000109245
:1003800060000FBE8F910F900FBE0F901F901895B9
:1003900061E084E00E94870560ED77E080E090E016
:1003A0000E94DC0461E084E00E94C30560EA7FE013
:1003B00080E090E00E94DC0426E040E052EC61E046
:1003C00070E088E493E00E943F0368EE73E080E011
:1003D00090E00E94DC0482E090E00E94970068EECA
:1003E00073E080E090E00E94DC0480E00E949201D3
:1003F00068EE73E080E090E00E94DC0460ED77E05E
:1004000080E090E00E94DC0463E080E00E945F01F5
:1004100068EE73E080E090E00E94DC0483E00E94DC
:10042000210168EE73E080E090E00E94DC0483E04C
:100430000E94400168EE73E080E090E00E94DC04DE
:1004400048EC50E06EEB70E08EE091E00E94CB0053
:1004500068EE73E080E090E00E94DC040E947F017F
:1004600068EB7BE080E090E00E94DC040E940301E6
:1004700068EB7BE080E090E00E94DC0448EC50E018
:100480006AEF70E081E291E00E94CB000E947F0160
:1004900068EB7BE080E090E00E94DC0468EE73E0B3
:1004A00080E090E00E94DC0460E084E00C94C305EE
:1004B000089560E271E082E493E00C94630682E4C4
:1004C00093E00C94F205FC01918D228D892F90E030
:1004D000805C9F4F821B91098F7399270895FC01BF
:1004E000918D828D981731F0828DE80FF11D858DE9
:1004F00090E008958FEF9FEF0895FC01918D828D1C
:10050000981761F0828DDF01A80FB11D5D968C9167
:10051000928D9F5F9F73928F90E008958FEF9FEF72
:100520000895FC01538D448D252F30E0842F90E0F9
:10053000821B930B541710F0CF96089501970895DE
:100540008CEF93E0892B49F080E090E0892B29F033
:100550000E94FC0381110C9400000895FC01848D1D
:10056000DF01A80FB11DA35ABF4F2C91848D90E0DD
:1005700001968F739927848FA689B7892C93A089B8
:10058000B1898C91837080648C93938D848D981342
:1005900006C00288F389E02D80818F7D80830895D5
:1005A000EF92FF920F931F93CF93DF93EC0181E0C3
:1005B000888F9B8D8C8D981305C0E889F98980817F
:1005C00085FD26C0F62E0B8D10E00F5F1F4F0F73B9
:1005D0001127E02E8C8DE8120CC00FB607FCFACF65
:1005E000E889F989808185FFF5CFCE010E94AE02AE
:1005F000F1CF8B8DFE01E80FF11DE35AFF4FF08222
:100600009FB7F8940B8FEA89FB89808180620AC0CA
:100610009FB7F894EE89FF896083E889F989808122
:100620008370806480839FBF81E090E0DF91CF91F1
:100630001F910F91FF90EF900895CF93DF93EC01FE
:10064000888D8823C9F0EA89FB89808185FD05C0F2
:10065000A889B9898C9186FD0FC00FB607FCF5CF2C
:10066000808185FFF2CFA889B9898C9185FFEDCF74
:10067000CE010E94AE02E7CFDF91CF910895CF92D5
:10068000DF92EF92FF921F93CF93DF93EC016A0109
:100690007B01122FE889F98982E080834115514E50
:1006A00061057105B1F060E079E08DE390E0A701AC
:1006B00096010E947906DA01C9010197A109B109E1
:1006C000B695A795979587959C01211580E13807E8
:1006D000A8F0E889F989108260E874E88EE190E07A
:1006E000A70196010E947906DA01C9010197A109C3
:1006F000B109B695A795979587959C01EC85FD85E1
:100700003083EE85FF852083188EEC89FD89108368
:10071000EA89FB89808180618083EA89FB89808105
:1007200088608083EA89FB89808180688083EA8988
:10073000FB8980818F7D8083DF91CF911F91FF9016
:10074000EF90DF90CF9008951F920F920FB60F9207
:1007500011242F938F939F93EF93FF93E09158036E
:10076000F09159038081E0915E03F0915F0382FD77
:1007700012C09081809161038F5F8F73209162031B
:10078000821751F0E0916103F0E0E85BFC4F958F38
:100790008093610301C08081FF91EF919F918F91C0
:1007A0002F910F900FBE0F901F9018951F920F92D0
:1007B0000FB60F9211242F933F934F935F936F9334
:1007C0007F938F939F93AF93BF93EF93FF9388E4AF
:1007D00093E00E94AE02FF91EF91BF91AF919F9184
:1007E0008F917F916F915F914F913F912F910F90DA
:1007F0000FBE0F901F90189588E493E00E9463024B
:1008000021E0892B09F420E0822F0895E8E4F3E049
:100810001382128288EE93E0A0E0B0E08483958397
:10082000A683B78383E391E09183808385EC90E096
:100830009587848784EC90E09787868780EC90E0AA
:10084000918B808B81EC90E0938B828B82EC90E09B
:10085000958B848B86EC90E0978B868B118E128E15
:10086000138E148E089508950E9423050E94330468
:100870000E94C801C0EAD2E00E9458022097E1F32A
:100880000E94A002F9CFCF92DF92EF92FF920F93D6
:100890001F93CF93DF936C017A018B01C0E0D0E00E
:1008A000CE15DF0581F0D8016D918D01D601ED9156
:1008B000FC910190F081E02DC6010995892B11F082
:1008C0002196EECF7E01C701DF91CF911F910F914D
:1008D000FF90EF90DF90CF9008951F920F920FB688
:1008E0000F9211242F933F938F939F93AF93BF93B6
:1008F0008091E6039091E703A091E803B091E903AA
:100900003091E50323E0230F2D3720F40196A11D3C
:10091000B11D05C026E8230F0296A11DB11D20932D
:10092000E5038093E6039093E703A093E803B09375
:10093000E9038091EA039091EB03A091EC03B0915D
:10094000ED030196A11DB11D8093EA039093EB0383
:10095000A093EC03B093ED03BF91AF919F918F9162
:100960003F912F910F900FBE0F901F9018953FB79A
:10097000F8948091EA039091EB03A091EC03B0917D
:10098000ED0326B5A89B05C02F3F19F00196A11DC8
:10099000B11D3FBFBA2FA92F982F8827820F911D15
:1009A000A11DB11DBC01CD0142E0660F771F881F5C
:1009B000991F4A95D1F708958F929F92AF92BF9257
:1009C000CF92DF92EF92FF926B017C010E94B704FD
:1009D0004B015C01C114D104E104F10401F10E9456
:1009E00078060E94B704DC01CB0188199909AA098D
:1009F000BB09883E9340A105B10560F321E0C21A0E
:100A0000D108E108F10888EE880E83E0981EA11C49
:100A1000B11CC114D104E104F10419F7DBCFFF903C
:100A2000EF90DF90CF90BF90AF909F908F90089500
:100A30008230910538F0880F991F880F991F05970C
:100A40000197F1F70895789484B5826084BD84B5E8
:100A5000816084BD85B5826085BD85B5816085BDB9
:100A6000EEE6F0E0808181608083E1E8F0E01082D2
:100A7000808182608083808181608083E0E8F0E013
:100A8000808181608083E1EBF0E0808184608083FD
:100A9000E0EBF0E0808181608083EAE7F0E0808134
:100AA0008460808380818260808380818160808394
:100AB0008081806880831092C1000895833081F026
:100AC00028F4813099F08230A1F008958730A9F0A0
:100AD0008830B9F08430D1F4809180008F7D03C0DC
:100AE000809180008F7780938000089584B58F7700
:100AF00002C084B58F7D84BD08958091B0008F774A
:100B000003C08091B0008F7D8093B0000895CF9393
:100B1000DF9390E0FC01E458FF4F2491FC01E05783
:100B2000FF4F8491882361F190E0880F991FFC01A9
:100B3000E255FF4FC591D491FC01EC55FF4FA591B3
:100B4000B491611109C09FB7F894888120958223E0
:100B50008883EC912E230BC0623061F49FB7F89428
:100B60008881322F309583238883EC912E2B2C9310
:100B70009FBF06C08FB7F894E8812E2B28838FBFC4
:100B8000DF91CF9108951F93CF93DF93282F30E00B
:100B9000F901E859FF4F8491F901E458FF4FD491CE
:100BA000F901E057FF4FC491CC23C1F0162F8111FA
:100BB0000E945E05EC2FF0E0EE0FFF1FEC55FF4F9B
:100BC000A591B4919FB7F894111104C08C91D09560
:100BD000D82302C0EC91DE2BDC939FBFDF91CF9135
:100BE0001F910895FC0180819181009711F00C9470
:100BF00039070895CF93DF93EC018881998100979D
:100C000011F00E943907198218821D821C821B82F2
:100C10001A82DF91CF9108950F931F93CF93DF93A3
:100C2000EC018B016F5F7F4F888199810E94C20721
:100C3000009731F0998388831B830A8381E001C088
:100C400080E0DF91CF911F910F910895CF93DF93B3
:100C5000EC0188819981892B29F08A819B818617F3
:100C6000970760F4CE010E940C06882341F08C8126
:100C70009D81892B19F4E881F981108281E0DF914F
:100C8000CF910895EF92FF920F931F93CF93DF932D
:100C9000EC017B018A01BA010E942606811104C081
:100CA000CE010E94FA0507C01D830C83B70188811D
:100CB00099810E949108CE01DF91CF911F910F91F0
:100CC000FF90EF900895FC0111821082138212822E
:100CD000158214826115710551F0FB01019000200D
:100CE000E9F73197AF01461B570B0C944206089564
:100CF0000895A1E21A2EAA1BBB1BFD010DC0AA1F5D
:100D0000BB1FEE1FFF1FA217B307E407F50720F074
:100D1000A21BB30BE40BF50B661F771F881F991FEF
:100D20001A9469F760957095809590959B01AC0138
:100D3000BD01CF010895EE0FFF1F0590F491E02D46
:100D400009940F931F93CF93DF938230910510F492
:100D500082E090E0E091F003F091F10320E030E0D8
:100D6000A0E0B0E0309719F14081518102811381F8
:100D700048175907C8F08417950769F4109731F0A0
:100D800012960C93129713961C9327C00093F003AE
:100D90001093F10322C02115310519F042175307B2
:100DA00018F49A01BD01EF01DF01F801DBCF211535
:100DB0003105F9F0281B390B2430310580F48A8184
:100DC0009B816115710521F0FB019383828304C02F
:100DD0009093F1038093F003FE01329644C0FE012C
:100DE000E20FF31F819391932250310939832883B5
:100DF0003AC02091EE033091EF03232B41F4209170
:100E00000201309103013093EF032093EE03209110
:100E10000001309101012115310541F42DB73EB794
:100E20004091040150910501241B350BE091EE0324
:100E3000F091EF03E217F307A0F42E1B3F0B2817E6
:100E4000390778F0AC014E5F5F4F2417350748F043
:100E50004E0F5F1F5093EF034093EE0381939193E6
:100E600002C0E0E0F0E0CF01DF91CF911F910F9140
:100E70000895CF93DF93009709F481C0FC01329766
:100E800013821282A091F003B091F103109781F4C4
:100E900020813181820F931F2091EE033091EF0367
:100EA0002817390751F5F093EF03E093EE0367C07D
:100EB000ED0120E030E0CE17DF0740F44A815B818E
:100EC0009E0141155105F1F0EA01F5CFD383C283AC
:100ED00040815181840F951FC817D90759F4888123
:100EE0009981840F951F0296918380838A819B81CB
:100EF000938382832115310529F4F093F103E09364
:100F0000F0033DC0E901FB83EA8349915991C40F85
:100F1000D51FEC17FD0761F480819181840F951F27
:100F20000296E90199838883828193819B838A83D6
:100F3000E0E0F0E012968D919C911397009719F0E4
:100F4000FD01DC01F7CF8D919C9111979D012E5FE2
:100F50003F4F820F931F2091EE033091EF0328172C
:100F6000390769F4309729F41092F1031092F003D5
:100F700002C013821282B093EF03A093EE03DF91BD
:100F8000CF910895A0E0B0E0E8ECF7E00C949C0865
:100F9000EC01009721F4CB010E94A106B4C0FC0132
:100FA000E60FF71F9C0122503109E217F30708F4FE
:100FB000A8C0D9010D911C91119706171707B0F021
:100FC0000530110508F49BC0C801049786179707E0
:100FD00008F495C002501109061B170B01931193D9
:100FE0006D937C93CF010E94390789C05B01A01AE1
:100FF000B10A4C01800E911EA091F003B091F10353
:10100000612C712CE12CF12C109709F446C08D91C4
:101010009C911197A815B905B1F56C0142E0C40E79
:10102000D11CCA14DB0478F14C018A189B086401B6
:1010300042E0C40ED11C1296BC9012971396AC914C
:10104000B5E0CB16D10440F0B282A38391828082B6
:10105000D9016D937C9309C00E5F1F4F800F911FC4
:10106000F90191838083EB2DFA2FE114F10431F023
:10107000D7011396FC93EE93129741C0F093F103BE
:10108000E093F0033CC06816790608F43C017D014A
:1010900012960D90BC91A02DB7CF8091EE03909148
:1010A000EF0388169906E1F466167706C8F4809176
:1010B000000190910101009741F48DB79EB74091D6
:1010C000040150910501841B950BE817F907C8F43A
:1010D000F093EF03E093EE03F901718360830FC097
:1010E000CB010E94A1067C01009759F0A801BE0126
:1010F0000E948808CE010E943907C70104C0CE01B2
:1011000002C080E090E0CDB7DEB7EEE00C94B80806
:10111000FB01DC0102C001900D9241505040D8F714
:101120000895FB01DC0101900D920020E1F7089584
:101130002F923F924F925F926F927F928F929F92E7
:10114000AF92BF92CF92DF92EF92FF920F931F93D5
:10115000CF93DF93CDB7DEB7CA1BDB0B0FB6F89486
:10116000DEBF0FBECDBF09942A88398848885F84C6
:101170006E847D848C849B84AA84B984C884DF8037
:10118000EE80FD800C811B81AA81B981CE0FD11D1B
:101190000FB6F894DEBF0FBECDBFED01089510E08D
:1011A000CEE5D0E004C0FE010E949B062196CF351B
:0811B000D107C9F7F894FFCF45
:1011B8000000F2032000A500090ACC33C33C4A41D1
:1011C8004E494345204953204249472044554D4202
:1011D800004A4B205348452041494947485400009C
:1011E800000000D002430491021D0363027D026FD8
:0211F8000200F3
:00000001FF
