:100000000C9437000C945F000C945F000C945F001C
:100010000C945F000C945F000C94AB000C945F0098
:100020000C945F000C945F000C945F000C945F00D4
:100030000C945F000C945F000C945F000C945F00C4
:100040000C9429030C945F000C9435020C94670205
:100050000C945F000C945F000C945F000C945F00A4
:100060000C945F000C945F00EA009702F0001124EA
:100070001FBECFEFD8E0DEBFCDBF11E0A0E0B1E002
:10008000E2EFFDE002C005900D92A034B107D9F770
:1000900021E0A0E4B1E001C01D92A13FB207E1F769
:1000A00010E0C6E3D0E004C02197FE010E94B8042E
:1000B000C433D107C9F70E94C5020C94EC060C9416
:1000C0000000411105C0EAE7F0E080818F7780836E
:1000D0006A30A9F063FD02C088E001C088E2677061
:1000E000682B88E10FB6F894A895809360000FBE46
:1000F00060936000E0E6F0E08081806480832111FD
:1001000014C083B7817F846083BFF89483B7816014
:1001100083BF85B7806685BF8F7D85BF78948895BE
:1001200083B78E7F83BF78940EC083B7817F84604E
:1001300083BFF89483B7816083BF7894889583B731
:100140008E7F83BF7894411105C0EAE7F0E080819B
:100150008068808308951F920F920FB60F9211242A
:100160008F930FB6F894A895809160008861809372
:100170006000109260000FBE8F910F900FBE0F9025
:100180001F90189526E040E855E260E070E087E4B3
:1001900091E00E94D00166E071E087E491E00E9466
:1001A000170368EE73E080E090E00C9498036BE036
:1001B00071E087E491E00E94170369E170E080E05C
:1001C00090E00E94980320E040E069E080E491E044
:1001D0000C94610062E371E081E491E00C9480048E
:1001E00081E491E00C940F04FC01918D228D892F04
:1001F00090E0805C9F4F821B91098F73992708952F
:10020000FC01918D828D981731F0828DE80FF11DE0
:10021000858D90E008958FEF9FEF0895FC01918DFB
:10022000828D981761F0828DDF01A80FB11D5D9658
:100230008C91928D9F5F9F73928F90E008958FEFC6
:100240009FEF0895FC01538D448D252F30E0842FBE
:1002500090E0821B930B541710F0CF9608950197EE
:1002600008958DE892E0892B49F080E090E0892B99
:1002700029F00E948D0281110C9400000895FC0168
:10028000848DDF01A80FB11DA35ABF4F2C91848D1F
:1002900090E001968F739927848FA689B7892C9354
:1002A000A089B1898C91837080648C93938D848DA7
:1002B000981306C00288F389E02D80818F7D8083AA
:1002C0000895EF92FF920F931F93CF93DF93EC016A
:1002D00081E0888F9B8D8C8D981305C0E889F98902
:1002E000808185FD26C0F62E0B8D10E00F5F1F4F1D
:1002F0000F731127E02E8C8DE8120CC00FB607FC8F
:10030000FACFE889F989808185FFF5CFCE010E9477
:100310003F01F1CF8B8DFE01E80FF11DE35AFF4F36
:10032000F0829FB7F8940B8FEA89FB898081806205
:100330000AC09FB7F894EE89FF896083E889F9893C
:1003400080818370806480839FBF81E090E0DF9133
:10035000CF911F910F91FF90EF900895CF93DF936E
:10036000EC01888D8823C9F0EA89FB89808185FDAD
:1003700005C0A889B9898C9186FD0FC00FB607FC0E
:10038000F5CF808185FFF2CFA889B9898C9185FF4F
:10039000EDCFCE010E943F01E7CFDF91CF910895CD
:1003A000CF92DF92EF92FF921F93CF93DF93EC01F6
:1003B0006A017B01122FE889F98982E08083411567
:1003C000514E61057105B1F060E079E08DE390E098
:1003D000A70196010E949604DA01C9010197A109BB
:1003E000B109B695A795979587959C01211580E150
:1003F0003807A8F0E889F989108260E874E88EE18E
:1004000090E0A70196010E949604DA01C9010197C4
:10041000A109B109B695A795979587959C01EC859B
:10042000FD853083EE85FF852083188EEC89FD895C
:100430001083EA89FB89808180618083EA89FB8956
:10044000808188608083EA89FB89808180688083DD
:10045000EA89FB8980818F7D8083DF91CF911F9115
:10046000FF90EF90DF90CF9008951F920F920FB6FC
:100470000F9211242F938F939F93EF93FF93E0910B
:100480005701F09158018081E0915D01F0915E018A
:1004900082FD12C09081809160018F5F8F732091E7
:1004A0006101821751F0E0916001F0E0E95BFE4FDD
:1004B000958F8093600101C08081FF91EF919F91A2
:1004C0008F912F910F900FBE0F901F9018951F9234
:1004D0000F920FB60F9211242F933F934F935F9378
:1004E0006F937F938F939F93AF93BF93EF93FF93FC
:1004F00087E491E00E943F01FF91EF91BF91AF919E
:100500009F918F917F916F915F914F913F912F912B
:100510000F900FBE0F901F90189587E491E00E94F6
:10052000F40021E0892B09F420E0822F0895E7E40C
:10053000F1E01382128288EE93E0A0E0B0E08483C1
:100540009583A683B78382E291E09183808385ECD3
:1005500090E09587848784EC90E09787868780EC8D
:1005600090E0918B808B81EC90E0938B828B82EC7E
:1005700090E0958B848B86EC90E0978B868B118E28
:10058000128E138E148E089508950E94D4030E9433
:10059000C4020E94C200C1E3D1E00E94D7002097AC
:1005A000E1F30E943101F9CFCF92DF92EF92FF92F7
:1005B0000F931F93CF93DF936C017A018B01C0E0FF
:1005C000D0E0CE15DF0581F0D8016D918D01D60107
:1005D000ED91FC910190F081E02DC6010995892BE8
:1005E00011F02196EECF7E01C701DF91CF911F91CF
:1005F0000F91FF90EF90DF90CF90089561157105F6
:1006000079F0FB0101900020E9F73197AF01461B1B
:10061000570BDC01ED91FC910280F381E02D0994F0
:1006200080E090E0089560E371E00C94FE020F9387
:100630001F93CF93DF93EC010E94FE028C01CE0149
:100640000E941303800F911FDF91CF911F910F9193
:1006500008951F920F920FB60F9211242F933F937C
:100660008F939F93AF93BF938091E5019091E601A3
:10067000A091E701B091E8013091E40123E0230F5C
:100680002D3720F40196A11DB11D05C026E8230FCA
:100690000296A11DB11D2093E4018093E501909382
:1006A000E601A093E701B093E8018091E901909100
:1006B000EA01A091EB01B091EC010196A11DB11DE1
:1006C0008093E9019093EA01A093EB01B093EC01D0
:1006D000BF91AF919F918F913F912F910F900FBE3E
:1006E0000F901F9018953FB7F8948091E901909171
:1006F000EA01A091EB01B091EC0126B5A89B05C0E1
:100700002F3F19F00196A11DB11D3FBFBA2FA92F90
:10071000982F8827820F911DA11DB11DBC01CD010D
:1007200042E0660F771F881F991F4A95D1F70895F9
:100730008F929F92AF92BF92CF92DF92EF92FF92F1
:100740006B017C010E9473034B015C01C114D10455
:10075000E104F10401F10E9495040E947303DC019D
:10076000CB0188199909AA09BB09883E9340A105C4
:10077000B10560F321E0C21AD108E108F10888EE62
:10078000880E83E0981EA11CB11CC114D104E104A1
:10079000F10419F7DBCFFF90EF90DF90CF90BF907F
:1007A000AF909F908F900895789484B5826084BDB7
:1007B00084B5816084BD85B5826085BD85B5816065
:1007C00085BDEEE6F0E0808181608083E1E8F0E0C5
:1007D0001082808182608083808181608083E0E8F4
:1007E000F0E0808181608083E1EBF0E080818460D3
:1007F0008083E0EBF0E0808181608083EAE7F0E0D5
:100800008081846080838081826080838081816038
:1008100080838081806880831092C1000895FC01EC
:1008200080819181009711F00C9456050895CF9323
:10083000DF93EC0188819981009711F00E945605A1
:10084000198218821D821C821B821A82DF91CF912D
:1008500008950F931F93CF93DF93EC018B016F5F8C
:100860007F4F888199810E94DF05009731F099833D
:1008700088831B830A8381E001C080E0DF91CF91F0
:100880001F910F910895CF93DF93EC018881998197
:10089000892B29F08A819B818617970760F4CE0106
:1008A0000E942904882341F08C819D81892B19F4B1
:1008B000E881F981108281E0DF91CF910895EF9274
:1008C000FF920F931F93CF93DF93EC017B018A017B
:1008D000BA010E944304811104C0CE010E94170492
:1008E00007C01D830C83B701888199810E94AE06E1
:1008F000CE01DF91CF911F910F91FF90EF9008955E
:10090000FC011182108213821282158214826115F9
:10091000710551F0FB0101900020E9F73197AF011B
:10092000461B570B0C945F0408950895A1E21A2EFC
:10093000AA1BBB1BFD010DC0AA1FBB1FEE1FFF1F83
:10094000A217B307E407F50720F0A21BB30BE40BD3
:10095000F50B661F771F881F991F1A9469F760951A
:100960007095809590959B01AC01BD01CF010895D4
:10097000EE0FFF1F0590F491E02D09940F931F9344
:10098000CF93DF938230910510F482E090E0E09104
:10099000EF01F091F00120E030E0A0E0B0E030970E
:1009A00019F1408151810281138148175907C8F01C
:1009B0008417950769F4109731F012960C931297EB
:1009C00013961C9327C00093EF011093F00122C0EF
:1009D0002115310519F04217530718F49A01BD018A
:1009E000EF01DF01F801DBCF21153105F9F0281BFC
:1009F000390B2430310580F48A819B8161157105A2
:100A000021F0FB019383828304C09093F0018093D3
:100A1000EF01FE01329644C0FE01E20FF31F819305
:100A2000919322503109398328833AC02091ED01F6
:100A30003091EE01232B41F420910201309103010A
:100A40003093EE012093ED012091000130910101DE
:100A50002115310541F42DB73EB740910401509165
:100A60000501241B350BE091ED01F091EE01E21739
:100A7000F307A0F42E1B3F0B2817390778F0AC01C1
:100A80004E5F5F4F2417350748F04E0F5F1F50939E
:100A9000EE014093ED018193919302C0E0E0F0E01C
:100AA000CF01DF91CF911F910F910895CF93DF93E5
:100AB000009709F481C0FC01329713821282A09141
:100AC000EF01B091F001109781F420813181820F04
:100AD000931F2091ED013091EE012817390751F550
:100AE000F093EE01E093ED0167C0ED0120E030E00E
:100AF000CE17DF0740F44A815B819E014115510505
:100B0000F1F0EA01F5CFD383C28340815181840F94
:100B1000951FC817D90759F488819981840F951FAB
:100B20000296918380838A819B819383828321159E
:100B3000310529F4F093F001E093EF013DC0E901A4
:100B4000FB83EA8349915991C40FD51FEC17FD0728
:100B500061F480819181840F951F0296E901998348
:100B60008883828193819B838A83E0E0F0E0129600
:100B70008D919C911397009719F0FD01DC01F7CF3F
:100B80008D919C9111979D012E5F3F4F820F931F76
:100B90002091ED013091EE012817390769F4309763
:100BA00029F41092F0011092EF0102C01382128218
:100BB000B093EE01A093ED01DF91CF910895A0E0F5
:100BC000B0E0E5EEF5E00C94B906EC01009721F4F5
:100BD000CB010E94BE04B4C0FC01E60FF71F9C01CC
:100BE00022503109E217F30708F4A8C0D9010D918A
:100BF0001C91119706171707B0F00530110508F47E
:100C00009BC0C80104978617970708F495C0025047
:100C10001109061B170B019311936D937C93CF0160
:100C20000E94560589C05B01A01AB10A4C01800ED2
:100C3000911EA091EF01B091F001612C712CE12C7B
:100C4000F12C109709F446C08D919C911197A8152D
:100C5000B905B1F56C0142E0C40ED11CCA14DB0425
:100C600078F14C018A189B08640142E0C40ED11C43
:100C70001296BC9012971396AC91B5E0CB16D104A6
:100C800040F0B282A38391828082D9016D937C93DC
:100C900009C00E5F1F4F800F911FF9019183808360
:100CA000EB2DFA2FE114F10431F0D7011396FC93E8
:100CB000EE93129741C0F093F001E093EF013CC036
:100CC0006816790608F43C017D0112960D90BC91DE
:100CD000A02DB7CF8091ED019091EE018816990675
:100CE000E1F466167706C8F4809100019091010145
:100CF000009741F48DB79EB74091040150910501D2
:100D0000841B950BE817F907C8F4F093EE01E09304
:100D1000ED01F901718360830FC0CB010E94BE0415
:100D20007C01009759F0A801BE010E94A506CE01E2
:100D30000E945605C70104C0CE0102C080E090E0C9
:100D4000CDB7DEB7EEE00C94D506FB01DC0102C0A6
:100D500001900D9241505040D8F70895FB01DC01FD
:100D600001900D920020E1F708952F923F924F924B
:100D70005F926F927F928F929F92AF92BF92CF922B
:100D8000DF92EF92FF920F931F93CF93DF93CDB734
:100D9000DEB7CA1BDB0B0FB6F894DEBF0FBECDBFAC
:100DA00009942A88398848885F846E847D848C847D
:100DB0009B84AA84B984C884DF80EE80FD800C8186
:100DC0001B81AA81B981CE0FD11D0FB6F894DEBF69
:100DD0000FBECDBFED01089510E0C6E3D0E004C022
:100DE000FE010E94B8042196C733D107C9F7F894D1
:020DF000FFCF33
:100DF2000000F1012000696E697400476F696E6737
:100E020020746F20736C656570206E6F7700000030
:100E120000006101D4022201AE01F4000E010001C2
:100E22000D0A006E616E00696E66006F76660000E4
:00000001FF
